:100000000C948E000C94BB030C94B6000C94B600B8
:100010000C94B6000C94B6000C94B6000C944110ED
:100020000C94B6000C94B6000C94B6000C94B60078
:100030000C94B6000C94B6000C94B6000C94B60068
:100040000C94B6000C94B6000C94B6000C94B60058
:100050000C94B6006D044C042B048E040C059F0513
:100060001D06B0062E07C1072F080809E708C608B5
:1000700029099209130A900A240BA10B350CB20C22
:10008000270E2D102D102D105E0E950ECC0E030F89
:100090003A0F710FA80FDF0F07634236B79BD8A73F
:1000A0001A39685618AEBAAB558C1D3CB7CC57639D
:1000B000BD6DEDFD753EF6177231BF000000803F4B
:1000C00008000000BE922449123EABAAAA2ABECD67
:1000D000CCCC4C3E00000080BEABAAAAAA3E0000D9
:1000E0000000BF000000803F0000000000084178D1
:1000F000D3BB4387D1133D190E3CC3BD4282AD2B08
:100100003E68EC8276BED98FE1A93E4C80EFFFBEFF
:1001100001C4FF7F3F0000000000F31211241FBE46
:10012000CFE5D8E0DEBFCDBF11E0A0E6B0E0EAE366
:10013000FEE202C005900D92A638B107D9F721E082
:10014000A6E8B1E001C01D92A03BB207E1F710E0C4
:10015000CEE8D0E004C02197FE010E94CC16CD3835
:10016000D107C9F70E948D120C941B170C94000044
:1001700084E680B981B181B9089584EA86BF06B664
:1001800007FEFDCF81B1089583B984E886BF06B626
:1001900007FEFDCF81B1089583B984E886BF06B616
:1001A00007FEFDCF81B1089584E986BF089584EAF2
:1001B00086BF06B607FEFDCF81B1089584EC86BFE9
:1001C00006B607FEFDCF81B1887F803511F483B17B
:1001D000089580E0089584E886BF06B607FEFDCF47
:1001E00081B1887F883511F483B1089580E0089546
:1001F00084E986BF0895282F30E0359527953595F9
:1002000027953595279535952795220F922F990F8C
:10021000990F290F8F70820F08959DEC899F912D62
:10022000112496959695969520E1929FA001112410
:10023000990F292F220F220F920F891B842B0895CB
:10024000CF93DF93EC010E94B8000E94BD0080EDC7
:100250000E94C40080E00E94CC0088810E940D01B1
:100260000E94CC0089810E940D010E94CC008A81ED
:100270000E940D010E94CC008B810E940D010E9402
:10028000CC008C810E940D010E94CC008D810E94C7
:100290000D010E94CC008E810E940D010E94CC00B5
:1002A00080E10E94CC000E94D400DF91CF9108959C
:1002B000CF93DF93EC010E94B8000E94BD0080ED57
:1002C0000E94C40080E00E94CC000E94D70081ED13
:1002D0000E94C4000E94DE000E94FB0088830E94EE
:1002E000DE000E94FB0089830E94DE000E94FB006A
:1002F0008A830E94DE000E94FB008B830E94DE0046
:100300000E94FB008C830E94DE000E94FB008D8314
:100310000E94EB000E94FB008E830E94F800DF9198
:10032000CF910895E199FECF90E09FBB8EBB6DBB4E
:100330008CB384608CBB8CB382608CBB0895E199D4
:10034000FECF90E09FBB8EBB8CB381608CBB8DB326
:100350000895CF92DF92EF92FF920F931F93CF9366
:10036000DF93CDB7DEB729970FB6F894DEBF0FBE87
:10037000CDBF6C01E12CF12C83E0E816F1042CF5E3
:1003800002E010E00E191F090C0D1D1DF8018081FF
:100390008A3020F488E790E00E943C03F8018081D5
:1003A0004AE0BE016F5F7F4F90E00E94E6160E9418
:1003B0003C03F2E0EF16F10420F48AE790E00E949B
:1003C0003C038FEFE81AF80AD7CF29960FB6F894B6
:1003D000DEBF0FBECDBFDF91CF911F910F91FF9078
:1003E000EF90DF90CF900895CF92DF92EF92FF923F
:1003F0000F931F93CF93DF93CDB7DEB729970FB637
:10040000F894DEBF0FBECDBF6C0100E010E00230FB
:10041000110504F57601E00EF11EF70180818A30A6
:1004200020F488E790E00E943C03F70180814AE0D5
:10043000BE016F5F7F4F90E00E94E6160E943C0372
:100440000115110521F48AE790E00E943C030F5F3B
:100450001F4FDDCF29960FB6F894DEBF0FBECDBF7C
:10046000DF91CF911F910F91FF90EF90DF90CF9090
:1004700008956150710920E030E0261737077CF4B9
:10048000DC01A20FB31F4C91FC01E60FF71F508156
:100490005C9340832F5F3F4F61507109EECF089509
:1004A0000F931F93CF93DF938B019A01C0E0D0E0AD
:1004B000009769F0F801EC0FFD1F6AE070E00E9400
:1004C000B816805D8083862F972F2196F1CFC217B3
:1004D000D3073CF4F801EC0FFD1F80E380832196E5
:1004E000F6CFBE01C8010E943902F801EC0FFD1FD2
:1004F0001082CE01DF91CF911F910F9108954F92FD
:100500005F926F927F928F929F92AF92BF92EF9283
:10051000FF920F931F93CF93DF932B013C01EA01CE
:1005200079010E94DE134B015C01072E000C880B41
:10053000990B0E9416149B01AC01C301B2010E94E9
:10054000FA122B013C0140E050E0BE01C4010E94C0
:1005500050028C01E114F10431F1FE01E80FF91FA2
:100560008EE28083B7010F2C000C880B990B0E9440
:1005700016149B01AC0160E070E080E291E40E94FF
:1005800033159B01AC01C301B2010E94C6140F5F79
:100590001F4F0C0F1D1F0E94DE13DC01CB01A701B2
:1005A000B8010E945002CE01DF91CF911F910F91AF
:1005B000FF90EF90BF90AF909F908F907F906F9043
:1005C0005F904F9008958BBB88B38B7F88BB88B3B7
:1005D0008D7F88BB88B3816088BB80E791E00197FD
:1005E000F1F700C088B38E7F88BB80E791E0019768
:1005F000F1F700C0089587B3876087BB18BA8FEF03
:100600008ABB1BBA8FEF97ED0197F1F700C000008E
:1006100088E30E94E3028CE00E94E30286E00E94ED
:10062000E30281E00E94E30208958BBB88B38460FB
:1006300088BB88B38D7F88BB88B3816088BB80E727
:1006400091E00197F1F700C088B38E7F88BB80E707
:1006500091E00197F1F700C00895809387016093BE
:10066000860190E4699F800D112480680E94E30256
:1006700008950E9415030895EF92FF920F931F9320
:10068000CF93DF937C01C0E0D0E087010C0F1D1FEA
:10069000F80180818823F1F06091860180918701C3
:1006A0000E942D032196F80180810E9439038091D8
:1006B00087018F5F80938701803138F31092870123
:1006C000809186018F5F809386018230F0F21092D4
:1006D0008601DBCFDF91CF911F910F91FF90EF90BB
:1006E0000895019709F046C06F3F7F4F09F042C05F
:1006F000E0E7F0E032812CE3818190E0239F800DE0
:10070000911D11249093910180939001EEE6F0E009
:100710003081818190E0239F800D911D1124909361
:100720008F0180938E01ECE6F0E03081818190E0D2
:10073000239F800D911D112490938D0180938C0136
:10074000EAE6F0E03081818190E0239F800D911DE9
:10075000112490938B0180938A01E8E6F0E03081C8
:10076000818190E0239F800D911D11249093890138
:100770008093880108951F920F920FB60F92112453
:100780002F933F934F935F936F937F938F939F9399
:10079000AF93BF93CF93DF93EF93FF93F89440E031
:1007A00050E060E070E022E62A95F1F7000080B3A7
:1007B00090E09595879595958795959587959595CD
:1007C0008795873031F08B3021F08D3011F08E30ED
:1007D00019F44F5F5F4F04C06F5F7F4F4150510965
:1007E000653671053CF010929C0110929B01789443
:1007F0000C942E10493E23E0520724F4693E23E076
:1008000072078CF299278B30910509F4ACC424F45B
:10081000079769F00C9429108D30910511F40C9410
:10082000460D0E9711F40C94150E0C94291081E0CE
:1008300090E090939C0180939B01E0919901F0914D
:100840009A013197EB30F10510F00C942D10E65D14
:10085000FF4F0C94CC16E2E9F1E082818F5F828336
:10086000883110F01092940161E086E00E942D031F
:1008700085E491E00E943C0361E086E00E942D0344
:10088000809194014AE067EA71E090E00E94E616E8
:100890000E943C030C942D10E2E9F1E081818F5F0E
:1008A00081838C3310F01092930161E087E00E9405
:1008B0002D0385E491E00E943C0361E087E00E9403
:1008C0002D03809193014AE067EA71E090E00E9475
:1008D000E6160E943C030C942D10E2E9F1E08081C1
:1008E0008F5F80838C3310F01092920161E088E07A
:1008F0000E942D0385E491E00E943C0361E088E0C2
:100900000E942D03809192014AE067EA71E090E035
:100910000E94E6160E943C030C942D10EEE6F0E0D7
:10092000408150E0818190E09093A4018093A301E5
:10093000ECE6F0E0A081B0E0B093A201A093A101A9
:100940002181E22FF0E0F093A001E0939F014F5F3F
:100950005F4F5093A6014093A501CCE3C49FB00123
:10096000C59F700D1124860F971FCA9F9001CB9FC2
:10097000300D11242E0F3F1F821793076CF49093B4
:100980009E0180939D016CE370E00E94B816EEE634
:10099000F0E0608381830EC0C901019790939E01AE
:1009A00080939D016CE370E00E94B816EEE6F0E0E3
:1009B0006083818360E080E00E942D038CE790E0FB
:1009C0000E943C0361E080E00E942D038DE890E0EE
:1009D0000E943C0360E085E00E942D038EE690E0DB
:1009E0000E94F40160E08BE00E942D038CE690E011
:1009F0000E94F40161E085E00E942D038AE690E008
:100A00000E94F40161E08BE00E942D0388E690E0F3
:100A10000E94F4010C942D10EEE6F0E0408150E0CD
:100A20005093A6014093A501618170E0ECE6F0E0EF
:100A3000A081B0E0B093A201A093A1012181E22F97
:100A4000F0E0F093A001E0939F016F5F7F4F709300
:100A5000A4016093A3016C33710554F01092A401BA
:100A60001092A3014F5F5F4F5093A6014093A501E1
:100A70002091A5013091A6016CE3629FC001639FA4
:100A8000900D11244091A3015091A401840F951F52
:100A90006A9F90016B9F300D11242E0F3F1F82170C
:100AA00093076CF490939E0180939D016CE370E03A
:100AB0000E94B816EEE6F0E0608381830EC0C901A3
:100AC000019790939E0180939D016CE370E00E94DA
:100AD000B816EEE6F0E06083818360E080E00E947B
:100AE0002D038CE790E00E943C0361E080E00E94CF
:100AF0002D038EE990E00E943C0360E085E00E94B7
:100B00002D038EE690E00E94F40160E08BE00E94ED
:100B10002D038CE690E00E94F40161E085E00E94E4
:100B20002D038AE690E00E94F40161E08BE00E94D0
:100B30002D0388E690E00E94F4010C942D10ECE661
:100B4000F0E0408150E0818190E09093A401809397
:100B5000A301EAE6F0E0A081B0E0B093A201A09387
:100B6000A1012181E22FF0E0F093A001E0939F0129
:100B70004F5F5F4F5093A6014093A501CCE3C49F04
:100B8000B001C59F700D1124860F971FCA9F900159
:100B9000CB9F300D11242E0F3F1F821793076CF44B
:100BA00090939E0180939D016CE370E00E94B816C3
:100BB000ECE6F0E0608381830EC0C9010197909359
:100BC0009E0180939D016CE370E00E94B816ECE6F4
:100BD000F0E06083818360E080E00E942D038FEA73
:100BE00090E00E943C0361E080E00E942D038DE8CC
:100BF00090E00E943C0360E085E00E942D038EE6B9
:100C000090E00E94F40160E08BE00E942D038CE6EE
:100C100090E00E94F40161E085E00E942D038AE6E5
:100C200090E00E94F40161E08BE00E942D0388E6D1
:100C300090E00E94F4010C942D10ECE6F0E040816D
:100C400050E05093A6014093A501618170E0EAE66F
:100C5000F0E0A081B0E0B093A201A093A1012181B6
:100C6000E22FF0E0F093A001E0939F016F5F7F4FD0
:100C70007093A4016093A3016C33710554F010923A
:100C8000A4011092A3014F5F5F4F5093A6014093C0
:100C9000A5012091A5013091A6016CE3629FC001DE
:100CA000639F900D11244091A3015091A401840FE2
:100CB000951F6A9F90016B9F300D11242E0F3F1FCF
:100CC000821793076CF490939E0180939D016CE3CF
:100CD00070E00E94B816ECE6F0E0608381830EC0FD
:100CE000C901019790939E0180939D016CE370E090
:100CF0000E94B816ECE6F0E06083818360E080E05B
:100D00000E942D038FEA90E00E943C0361E080E0A6
:100D10000E942D038EE990E00E943C0360E085E094
:100D20000E942D038EE690E00E94F40160E08BE0CB
:100D30000E942D038CE690E00E94F40161E085E0C2
:100D40000E942D038AE690E00E94F40161E08BE0AE
:100D50000E942D0388E690E00E94F4010C942D106F
:100D6000EAE6F0E0408150E0818190E09093A401B8
:100D70008093A301E8E6F0E0A081B0E0B093A20187
:100D8000A093A1012181E22FF0E0F093A001E09374
:100D90009F014F5F5F4F5093A6014093A501CCE3A5
:100DA000C49FB001C59F700D1124860F971FCA9F65
:100DB0009001CB9F300D11242E0F3F1F82179307F8
:100DC0006CF490939E0180939D016CE370E00E940F
:100DD000B816EAE6F0E0608381830EC0C90101978E
:100DE00090939E0180939D016CE370E00E94B81681
:100DF000EAE6F0E06083818360E080E00E942D03FA
:100E000080EC90E00E943C0361E080E00E942D03B2
:100E10008DE890E00E943C0360E085E00E942D0395
:100E20008EE690E00E94F40160E08BE00E942D03CA
:100E30008CE690E00E94F40161E085E00E942D03C1
:100E40008AE690E00E94F40161E08BE00E942D03AD
:100E500088E690E00E94F4010C942D10EAE6F0E0A0
:100E6000408150E05093A6014093A501618170E05C
:100E7000E8E6F0E0A081B0E0B093A201A093A10168
:100E80002181E22FF0E0F093A001E0939F016F5FDA
:100E90007F4F7093A4016093A3016C33710554F0EC
:100EA0001092A4011092A3014F5F5F4F5093A601CF
:100EB0004093A5012091A5013091A6016CE3629FAA
:100EC000C001639F900D11244091A3015091A40192
:100ED000840F951F6A9F90016B9F300D11242E0F78
:100EE0003F1F821793076CF490939E0180939D019E
:100EF0006CE370E00E94B816EAE6F0E0608381835C
:100F00000EC0C901019790939E0180939D016CE3EF
:100F100070E00E94B816EAE6F0E06083818360E04A
:100F200080E00E942D0380EC90E00E943C0361E091
:100F300080E00E942D038EE990E00E943C0360E077
:100F400085E00E942D038EE690E00E94F40160E0AF
:100F50008BE00E942D038CE690E00E94F40161E09A
:100F600085E00E942D038AE690E00E94F40161E092
:100F70008BE00E942D0388E690E00E94F4010C941F
:100F80002D10E8E6F0E0808190E0418150E0509340
:100F9000A4014093A30128E130E03093A201209303
:100FA000A1011092A00110929F0101969093A601B9
:100FB0008093A5016CE3689F9001699F300D112417
:100FC000CA01820F931F803A25E092075CF4909348
:100FD0009E0180939D016CE370E00E94B8166083CF
:100FE00081830CC08FE995E090939E0180939D01D1
:100FF000E8E6F0E087E180838BE3818360E080E0D6
:101000000E942D0381ED90E00E943C0361E080E0AE
:101010000E942D038DE890E00E943C0360E085E093
:101020000E942D038EE690E00E94F40160E08BE0C8
:101030000E942D038CE690E00E94F40161E085E0BF
:101040000E942D038AE690E00E94F40161E08BE0AB
:101050000E942D0388E690E00E94F401FEC7E8E6B6
:10106000F0E0808190E09093A6018093A50121811A
:1010700030E048E150E05093A2014093A10110926A
:10108000A00110929F012F5F3F4F3093A401209346
:10109000A3012C3331054CF01092A4011092A3014E
:1010A00001969093A6018093A5018091A50190914E
:1010B000A6014CE3489F9001499F300D1124809177
:1010C000A3019091A401820F931F803A25E092071B
:1010D0006CF490939E0180939D016CE370E00E94FC
:1010E000B816E8E6F0E0608381830CC08FE995E0F4
:1010F00090939E0180939D01E8E6F0E087E1808374
:101100008BE3818360E080E00E942D0381ED90E01D
:101110000E943C0361E080E00E942D038EE990E094
:101120000E943C0360E085E00E942D038EE690E083
:101130000E94F40160E08BE00E942D038CE690E0B9
:101140000E94F40161E085E00E942D038AE690E0B0
:101150000E94F40161E08BE00E942D0388E690E09C
:101160000E94F4017AC782E090E090939C01809302
:101170009B01E0919901F0919A013197EB30F105D3
:1011800008F06BC7EB5CFF4F0C94CC16E2E9F1E082
:10119000828181508283883118F087E180939401A5
:1011A00061E086E00E942D0385E491E00E943C030B
:1011B00061E086E00E942D03809194014AE067EA95
:1011C00071E090E00E94E6160E943C0346C7E2E907
:1011D000F1E08181815081838C3318F08BE380931F
:1011E000930161E087E00E942D0385E491E00E9475
:1011F0003C0361E087E00E942D03809193014AE067
:1012000067EA71E090E00E94E6160E943C0325C761
:10121000E2E9F1E08081815080838C3318F08BE328
:101220008093920161E088E00E942D0385E491E0C3
:101230000E943C0361E088E00E942D0380919201AE
:101240004AE067EA71E090E00E94E6160E943C03E3
:1012500004C7EEE6F0E0808190E0418150E05093D9
:10126000A4014093A3011092A2011092A101109237
:10127000A00110929F0101979093A6018093A50170
:101280006CE3689F9001699F300D1124CA01820FA1
:10129000931F181619065CF490939E0180939D018C
:1012A0006CE370E00E94B816608381830AC081E01D
:1012B00090E090939E0180939D01EEE6F0E0108215
:1012C000818360E080E00E942D038CE790E00E9423
:1012D0003C0361E080E00E942D038DE890E00E94D5
:1012E0003C0360E085E00E942D038EE690E00E94C2
:1012F000F40160E08BE00E942D038CE690E00E94F8
:10130000F40161E085E00E942D038AE690E00E94EE
:10131000F40161E08BE00E942D0388E690E00E94DA
:10132000F4019BC6EEE6F0E0808190E09093A60188
:101330008093A501218130E01092A2011092A101B9
:101340001092A00110929F01215031093093A40105
:101350002093A3012C3331055CF02BE330E0309374
:10136000A4012093A30101979093A6018093A50166
:101370008091A5019091A6014CE3489F9001499F5F
:10138000300D11248091A3019091A401820F931F2D
:10139000181619066CF490939E0180939D016CE3DE
:1013A00070E00E94B816EEE6F0E0608381830AC028
:1013B00081E090E090939E0180939D01EEE6F0E045
:1013C0001082818360E080E00E942D038CE790E032
:1013D0000E943C0361E080E00E942D038EE990E0D2
:1013E0000E943C0360E085E00E942D038EE690E0C1
:1013F0000E94F40160E08BE00E942D038CE690E0F7
:101400000E94F40161E085E00E942D038AE690E0ED
:101410000E94F40161E08BE00E942D0388E690E0D9
:101420000E94F4011AC6ECE6F0E0408150E08181B0
:1014300090E09093A4018093A301EEE6F0E0A081F8
:10144000B0E0B093A201A093A1012181E22FF0E0CE
:10145000F093A001E0939F01415051095093A601E0
:101460004093A501CCE3C49FB001C59F700D11242A
:10147000860F971FCA9F9001CB9F300D11242E0F0E
:101480003F1F281739076CF490939E0180939D01AC
:101490006CE370E00E94B816ECE6F0E060838183B4
:1014A0000EC0C901019690939E0180939D016CE34B
:1014B00070E00E94B816ECE6F0E06083818360E0A3
:1014C00080E00E942D038FEA90E00E943C0361E0DF
:1014D00080E00E942D038DE890E00E943C0360E0D4
:1014E00085E00E942D038EE690E00E94F40160E00A
:1014F0008BE00E942D038CE690E00E94F40161E0F5
:1015000085E00E942D038AE690E00E94F40161E0EC
:101510008BE00E942D0388E690E00E94F4019DC5B7
:10152000ECE6F0E0408150E05093A6014093A50125
:10153000618170E0EEE6F0E0A081B0E0B093A2013E
:10154000A093A1012181E22FF0E0F093A001E093AC
:101550009F01615071097093A4016093A3016C33E2
:10156000710564F08BE390E09093A4018093A30154
:10157000415051095093A6014093A5012091A50126
:101580003091A6016CE3629FC001639F900D11240E
:101590004091A3015091A401840F951F6A9F90016F
:1015A0006B9F300D11242E0F3F1F281739076CF445
:1015B00090939E0180939D016CE370E00E94B816A9
:1015C000ECE6F0E0608381830EC0C9010196909340
:1015D0009E0180939D016CE370E00E94B816ECE6DA
:1015E000F0E06083818360E080E00E942D038FEA59
:1015F00090E00E943C0361E080E00E942D038EE9B0
:1016000090E00E943C0360E085E00E942D038EE69E
:1016100090E00E94F40160E08BE00E942D038CE6D4
:1016200090E00E94F40161E085E00E942D038AE6CB
:1016300090E00E94F40161E08BE00E942D0388E6B7
:1016400090E00E94F40109C5EAE6F0E0408150E034
:10165000818190E09093A4018093A301ECE6F0E0F7
:10166000A081B0E0B093A201A093A1012181E22F5B
:10167000F0E0F093A001E0939F0141505109509395
:10168000A6014093A501CCE3C49FB001C59F700D96
:101690001124860F971FCA9F9001CB9F300D1124F4
:1016A0002E0F3F1F281739076CF490939E018093EB
:1016B0009D016CE370E00E94B816EAE6F0E06083FA
:1016C00081830EC0C901019690939E0180939D0174
:1016D0006CE370E00E94B816EAE6F0E06083818374
:1016E00060E080E00E942D0380EC90E00E943C03CB
:1016F00061E080E00E942D038DE890E00E943C03B1
:1017000060E085E00E942D038EE690E00E94F401E7
:1017100060E08BE00E942D038CE690E00E94F401D3
:1017200061E085E00E942D038AE690E00E94F401CA
:1017300061E08BE00E942D0388E690E00E94F401B6
:101740008CC4EAE6F0E0408150E05093A60140935B
:10175000A501618170E0ECE6F0E0A081B0E0B0931B
:10176000A201A093A1012181E22FF0E0F093A0015A
:10177000E0939F01615071097093A4016093A301EC
:101780006C33710564F08BE390E09093A401809337
:10179000A301415051095093A6014093A501209106
:1017A000A5013091A6016CE3629FC001639F900D7B
:1017B00011244091A3015091A401840F951F6A9FA9
:1017C00090016B9F300D11242E0F3F1F28173907F2
:1017D0006CF490939E0180939D016CE370E00E94F5
:1017E000B816EAE6F0E0608381830EC0C901019675
:1017F00090939E0180939D016CE370E00E94B81667
:10180000EAE6F0E06083818360E080E00E942D03DF
:1018100080EC90E00E943C0361E080E00E942D0398
:101820008EE990E00E943C0360E085E00E942D0379
:101830008EE690E00E94F40160E08BE00E942D03B0
:101840008CE690E00E94F40161E085E00E942D03A7
:101850008AE690E00E94F40161E08BE00E942D0393
:1018600088E690E00E94F401F8C3E8E6F0E04081E9
:1018700050E0818190E09093A4018093A301EAE677
:10188000F0E0A081B0E0B093A201A093A10121817A
:10189000E22FF0E0F093A001E0939F014150510945
:1018A0005093A6014093A501CCE3C49FB001C59F0E
:1018B000700D1124860F971FCA9F9001CB9F300D8A
:1018C00011242E0F3F1F281739076CF490939E01A7
:1018D00080939D016CE370E00E94B816E8E6F0E0AA
:1018E000608381830EC0C901019690939E0180930D
:1018F0009D016CE370E00E94B816E8E6F0E06083BA
:10190000818360E080E00E942D0381ED90E00E94E1
:101910003C0361E080E00E942D038DE890E00E948E
:101920003C0360E085E00E942D038EE690E00E947B
:10193000F40160E08BE00E942D038CE690E00E94B1
:10194000F40161E085E00E942D038AE690E00E94A8
:10195000F40161E08BE00E942D0388E690E00E9494
:10196000F4017BC3E8E6F0E0408150E05093A6012B
:101970004093A501618170E0EAE6F0E0A081B0E06B
:10198000B093A201A093A1012181E22FF0E0F09396
:10199000A001E0939F01615071097093A4016093CD
:1019A000A3016C33710564F08BE390E09093A40184
:1019B0008093A301415051095093A6014093A50182
:1019C0002091A5013091A6016CE3629FC001639F45
:1019D000900D11244091A3015091A401840F951FF3
:1019E0006A9F90016B9F300D11242E0F3F1F281707
:1019F00039076CF490939E0180939D016CE370E035
:101A00000E94B816E8E6F0E0608381830EC0C90149
:101A1000019690939E0180939D016CE370E00E947B
:101A2000B816E8E6F0E06083818360E080E00E9421
:101A30002D0381ED90E00E943C0361E080E00E9474
:101A40002D038EE990E00E943C0360E085E00E9457
:101A50002D038EE690E00E94F40160E08BE00E948E
:101A60002D038CE690E00E94F40161E085E00E9485
:101A70002D038AE690E00E94F40161E08BE00E9471
:101A80002D0388E690E00E94F401E7C283E090E035
:101A900090939C0180939B018091990190919A0170
:101AA0008230910509F467C034F4009759F001972A
:101AB00009F486C0B5C083309105C1F10C970CF4D0
:101AC000CCC2AEC083E090E090939A0180939901DC
:101AD00080E090E08730910554F4FC01E059FF4F1D
:101AE0002081FC01EE56FE4F20830196F3CF60E08B
:101AF00080E00E942D0382EE90E00E943C0361E0B2
:101B000080E00E942D0383EF90E00E943C0361E09F
:101B100086E00E942D03809194014AE067EA71E01B
:101B200090E00E94E6160E943C0397C282E090E09B
:101B300090939A018093990160E080E00E942D03C8
:101B400082EE90E00E943C0361E080E00E942D0361
:101B500084E091E00E943C0361E087E00E942D0355
:101B6000809193014AE067EA71E090E00E94E616F6
:101B70000E943C0372C281E090E090939A018093AE
:101B8000990160E080E00E942D0382EE90E00E94C7
:101B90003C0361E080E00E942D0385E191E00E941A
:101BA0003C0361E088E00E942D03809192014AE0AD
:101BB00067EA71E090E00E94E6160E943C034DC285
:101BC00010929A011092990180E090E0873091057F
:101BD00054F4FC01EE56FE4F2081FC01E059FF4F0A
:101BE00020830196F3CF80E790E00E94200160E01F
:101BF00080E00E942D0386E291E00E943C0360E0B9
:101C000087E00E942D0380E790E00E94A90161E037
:101C100080E00E942D0387E391E00E943C031DC2F7
:101C200010929A011092990118C284E090E090936A
:101C30009C0180939B01E0919901F0919A01EC3015
:101C4000F10508F001C2E05CFF4F0C94CC1684E073
:101C500090E090939A018093990160E080E00E9467
:101C60002D038CE790E00E943C0361E080E00E943D
:101C70002D038DE890E00E943C0360E085E00E9427
:101C80002D038EE690E00E94F40160E08BE00E945C
:101C90002D038CE690E00E94F40161E085E00E9453
:101CA0002D038AE690E00E94F40161E08BE00E943F
:101CB0002D0388E690E00E94F401CFC185E090E01A
:101CC00090939A018093990160E080E00E942D0337
:101CD0008CE790E00E943C0361E080E00E942D03CD
:101CE0008EE990E00E943C0360E085E00E942D03B5
:101CF0008EE690E00E94F40160E08BE00E942D03EC
:101D00008CE690E00E94F40161E085E00E942D03E2
:101D10008AE690E00E94F40161E08BE00E942D03CE
:101D200088E690E00E94F40198C186E090E09093EC
:101D30009A018093990160E080E00E942D038FEA70
:101D400090E00E943C0361E080E00E942D038DE85A
:101D500090E00E943C0360E085E00E942D038EE647
:101D600090E00E94F40160E08BE00E942D038CE67D
:101D700090E00E94F40161E085E00E942D038AE674
:101D800090E00E94F40161E08BE00E942D0388E660
:101D900090E00E94F40161C187E090E090939A0185
:101DA0008093990160E080E00E942D038FEA90E02B
:101DB0000E943C0361E080E00E942D038EE990E0E8
:101DC0000E943C0360E085E00E942D038EE690E0D7
:101DD0000E94F40160E08BE00E942D038CE690E00D
:101DE0000E94F40161E085E00E942D038AE690E004
:101DF0000E94F40161E08BE00E942D0388E690E0F0
:101E00000E94F4012AC188E090E090939A018093A7
:101E1000990160E080E00E942D0380EC90E00E9438
:101E20003C0361E080E00E942D038DE890E00E9479
:101E30003C0360E085E00E942D038EE690E00E9466
:101E4000F40160E08BE00E942D038CE690E00E949C
:101E5000F40161E085E00E942D038AE690E00E9493
:101E6000F40161E08BE00E942D0388E690E00E947F
:101E7000F401F3C089E090E090939A018093990176
:101E800060E080E00E942D0380EC90E00E943C0323
:101E900061E080E00E942D038EE990E00E943C0307
:101EA00060E085E00E942D038EE690E00E94F40140
:101EB00060E08BE00E942D038CE690E00E94F4012C
:101EC00061E085E00E942D038AE690E00E94F40123
:101ED00061E08BE00E942D0388E690E00E94F4010F
:101EE000BCC08AE090E090939A018093990160E0F1
:101EF00080E00E942D0381ED90E00E943C0361E0B0
:101F000080E00E942D038DE890E00E943C0360E099
:101F100085E00E942D038EE690E00E94F40160E0CF
:101F20008BE00E942D038CE690E00E94F40161E0BA
:101F300085E00E942D038AE690E00E94F40161E0B2
:101F40008BE00E942D0388E690E00E94F40185C09A
:101F50008BE090E090939A018093990160E080E09B
:101F60000E942D0381ED90E00E943C0361E080E03F
:101F70000E942D038EE990E00E943C0360E085E022
:101F80000E942D038EE690E00E94F40160E08BE059
:101F90000E942D038CE690E00E94F40161E085E050
:101FA0000E942D038AE690E00E94F40161E08BE03C
:101FB0000E942D0388E690E00E94F4014EC010922A
:101FC0009A0110929901CEE6D0E0688180E00E94EB
:101FD0009201698181E00E949201CCE6D0E06881A3
:101FE00082E00E949201698183E00E949201CAE628
:101FF000D0E0688184E00E949201698185E00E94BE
:102000009201C8E6D0E0688186E00E949201698171
:1020100087E00E94920160E080E00E942D0386E24A
:1020200091E00E943C0360E087E00E942D0380E77E
:1020300090E00E94A90161E080E00E942D0387E307
:1020400091E00E943C0309C010929A0110929901FC
:1020500004C010929C0110929B017894FF91EF9123
:10206000DF91CF91BF91AF919F918F917F916F91B0
:102070005F914F913F912F910F900FBE0F901F9046
:1020800018951F920F920FB60F9211244F925F92E4
:102090006F927F92AF92BF92CF92DF92EF92FF92B8
:1020A0000F931F932F933F934F935F936F937F9360
:1020B0008F939F93AF93BF93CF93DF93EF93FF9350
:1020C000F894E0E7F0E080818F5F80838C3370F0DC
:1020D000108281818F5F81838C3340F011828281F5
:1020E0008F5F8283883110F0109272008091990185
:1020F00090919A01892B09F0B0C160E080E00E94C4
:102100002D0386E291E00E943C0360E087E00E949C
:102110002D0380E790E00E94A901E0E7F0E09281C2
:102120008CE3C181D0E0899FC00DD11D1124D093D3
:102130009101C0939001EEE6F0E09081E180F12CF6
:10214000899FE00CF11C1124F0928F01E0928E0126
:10215000ECE6F0E09081018110E0899F000D111DF7
:10216000112410938D0100938C01EAE6F0E0908138
:10217000A180B12C899FA00CB11C1124B0928B01BD
:10218000A0928A01E8E6F0E09081C180D12C899F7D
:10219000C00CD11C1124D0928901C0928801CE15A7
:1021A000DF0594F41CBE61E080E00E942D0388E40A
:1021B00091E00E943C0361E085E00E942D0386E5EA
:1021C00091E00E943C0349C1C017D1070CF07FC0C9
:1021D0006091700070E080E090E00E94161420E0B2
:1021E00030E040E752E40E946C132B013C01BE0139
:1021F000DD0F880B990B0E941614A30192010E9417
:10220000FB122B013C01B7010F2C000C880B990B22
:102210000E9416149B01AC01C301B2010E94FA1284
:102220002B013C01B8016E197F09072E000C880BA9
:10223000990B0E9416149B01AC01C301B2010E94CC
:102240006C1320E030E04FE753E40E94C6140E9474
:10225000E5136CBF61E080E00E942D038CE591E006
:102260000E943C0361E085E00E942D036CB770E0A2
:1022700080E090E00E94161423E333E343E250E44D
:102280000E946C1320E030E040E251E40E946713AA
:10229000882324F488E790E00E943C036CB770E048
:1022A00080E090E00E94161423E333E343E250E41D
:1022B0000E946C1322E030E047EA51E00E947F0266
:1022C0000E943C038AE591E00E943C03C6C0CA1507
:1022D000DB053CF58FEF8CBF61E080E00E942D03B1
:1022E0008AE691E00E943C0361E085E00E942D03B4
:1022F0006CB770E080E090E00E94161423E333E3B3
:1023000043E250E40E946C1322E030E047EA51E0DF
:102310000E947F020E943C038AE591E00E943C03F8
:102320009CC0CC15DD050CF087C06091700070E09A
:1023300080E090E00E94161420E030E040E752E494
:102340000E946C132B013C01BE01DD0F880B990B21
:102350000E941614A30192010E94FB122B013C0162
:10236000B5010B2C000C880B990B0E9416149B01D5
:10237000AC01C301B2010E94FA122B013C01B6016B
:102380006A197B09072E000C880B990B0E94161402
:102390009B01AC01C301B2010E946C139B01AC0113
:1023A00060E070E080E89FE30E94FA1220E030E0F5
:1023B0004FE753E40E94C6140E94E5136CBF61E02E
:1023C00080E00E942D0388E791E00E943C0361E0D9
:1023D00085E00E942D036CB770E080E090E00E94E1
:1023E000161423E333E343E250E40E946C1320E02D
:1023F00030E040E251E40E946713882324F488E728
:1024000090E00E943C036CB770E080E090E00E9496
:10241000161423E333E343E250E40E946C1322E0FA
:1024200030E047EA51E00E947F020E943C038AE5C7
:1024300091E00E943C0311C01CBE61E080E00E945C
:102440002D0388E491E00E943C0361E085E00E9456
:102450002D0386E591E00E943C038091710081117B
:102460000AC080917700882331F01092770080E7CE
:1024700090E00E945801809171008B3339F4809173
:102480007700811103C081E0809377007894FF91F9
:10249000EF91DF91CF91BF91AF919F918F917F91FC
:1024A0006F915F914F913F912F911F910F91FF90ED
:1024B000EF90DF90CF90BF90AF907F906F905F9044
:1024C0004F900F900FBE0F901F90189587B387BB4A
:1024D00088B3806F88BB8BB780648BBF85B78A60F9
:1024E00085BF84B784BF789408958CB78CBF83B7B9
:1024F000896683BF87B3886087BB789408958EE32D
:1025000098E39BBD8ABD8FB58FBD8EB58D608EBDA6
:1025100089B7806189BF789408952FEF8FE392E0A7
:10252000215080409040E1F700C000000E946612F8
:102530000E9475120E947F120E94FB0280E790E0C9
:102540000E94580180E00E949F0180936E008831B4
:1025500020F08091660080936E0081E00E949F01D0
:1025600080936F008C3320F08091670080936F0020
:1025700082E00E949F0180936C00883120F080915E
:10258000640080936C0083E00E949F0180936D0043
:102590008C3320F08091650080936D0084E00E9470
:1025A0009F0180936A00883120F0809162008093BF
:1025B0006A0085E00E949F0180936B008C3320F0BD
:1025C0008091630080936B0086E00E949F0180935E
:1025D0006800883120F0809160008093680087E077
:1025E0000E949F01FFCF6FEF7FEF81E090E00E949C
:1025F000710308955058BB27AA270E9412130C9408
:102600008C140E947E1438F00E94851420F039F456
:102610009F3F19F426F40C947B140EF4E095E7FB2D
:102620000C947514E92F0E949D1458F3BA17620791
:1026300073078407950720F079F4A6F50C94BF146E
:102640000EF4E0950B2EBA2FA02D0B01B9019001CD
:102650000C01CA01A0011124FF27591B99F0593F11
:1026600050F4503E68F11A16F040A22F232F342F59
:102670004427585FF3CF469537952795A795F040A7
:102680005395C9F77EF41F16BA0B620B730B840BBC
:10269000BAF09150A1F0FF0FBB1F661F771F881F74
:1026A000C2F70EC0BA0F621F731F841F48F48795CC
:1026B00077956795B795F7959E3F08F0B0CF9395BE
:1026C000880F08F09927EE0F9795879508950E9437
:1026D000511408F481E008950E9480130C948C1426
:1026E0000E94851458F00E947E1440F029F45F3F48
:1026F00029F00C94751451110C94C0140C947B1493
:102700000E949D1468F39923B1F3552391F3951B0F
:10271000550BBB27AA2762177307840738F09F5F02
:102720005F4F220F331F441FAA1FA9F335D00E2E6F
:102730003AF0E0E832D091505040E695001CCAF7DC
:102740002BD0FE2F29D0660F771F881FBB1F26179F
:1027500037074807AB07B0E809F0BB0B802DBF0176
:10276000FF2793585F4F3AF09E3F510578F00C9445
:1027700075140C94C0145F3FE4F3983ED4F386952F
:1027800077956795B795F7959F5FC9F7880F911D66
:102790009695879597F90895E1E0660F771F881F52
:1027A000BB1F621773078407BA0720F0621B730B05
:1027B000840BBA0BEE1F88F7E09508950E94E5138D
:1027C0006894B1110C94C01408950E94A51488F067
:1027D0009F5798F0B92F9927B751B0F0E1F0660FE5
:1027E000771F881F991F1AF0BA95C9F714C0B13026
:1027F00091F00E94BF14B1E008950C94BF14672FAC
:10280000782F8827B85F39F0B93FCCF38695779554
:102810006795B395D9F73EF490958095709561953D
:102820007F4F8F4F9F4F0895E89409C097FB3EF468
:1028300090958095709561957F4F8F4F9F4F99230D
:10284000A9F0F92F96E9BB279395F695879577958B
:102850006795B795F111F8CFFAF4BB0F11F460FF4B
:102860001BC06F5F7F4F8F4F9F4F16C0882311F0A3
:1028700096E911C0772321F09EE8872F762F05C0B7
:10288000662371F096E8862F70E060E02AF09A9552
:10289000660F771F881FDAF7880F9695879597F947
:1028A0000895990F0008550FAA0BE0E8FEEF1616E1
:1028B0001706E807F907C0F012161306E407F50734
:1028C00098F0621B730B840B950B39F40A2661F0A8
:1028D000232B242B252B21F408950A2609F4A1404B
:1028E000A6958FEF811D811D089597F99F6780E858
:1028F00070E060E008959FEF80EC089500240A9452
:102900001616170618060906089500240A941216CA
:102910001306140605060895092E0394000C11F4FD
:10292000882352F0BB0F40F4BF2B11F460FF04C0AA
:102930006F5F7F4F8F4F9F4F089557FD9058440F03
:10294000551F59F05F3F71F04795880F97FB991F0E
:1029500061F09F3F79F087950895121613061406CB
:10296000551FF2CF4695F1DF08C016161706180658
:10297000991FF1CF86957105610508940895E89433
:10298000BB2766277727CB0197F908950E94D914B2
:102990000C948C140E947E1438F00E94851420F050
:1029A000952311F00C9475140C947B1411240C9441
:1029B000C0140E949D1470F3959FC1F3950F50E0D1
:1029C000551F629FF001729FBB27F00DB11D639FE1
:1029D000AA27F00DB11DAA1F649F6627B00DA11D87
:1029E000661F829F2227B00DA11D621F739FB00D2D
:1029F000A11D621F839FA00D611D221F749F33279D
:102A0000A00D611D231F849F600D211D822F762F35
:102A10006A2F11249F5750409AF0F1F088234AF012
:102A2000EE0FFF1FBB1F661F771F881F915050407E
:102A3000A9F79E3F510580F00C9475140C94C014B6
:102A40005F3FE4F3983ED4F3869577956795B79505
:102A5000F795E7959F5FC1F7FE2B880F911D96951F
:102A6000879597F90895FA01EE0FFF1F309621051B
:102A70003105A1F16115710561F48038BFE39B0751
:102A800049F168949038810561F08038BFEF9B0769
:102A900041F099234AF5FF3FE1053105210519F180
:102AA000E8940894E795D901AA2329F4AB2FBE2F07
:102AB000F85FD0F310C0FF5F70F4A695E0F7F73928
:102AC00050F019F0FF3A38F49F779F930DD00F9094
:102AD00007FC9058089546F00C947B1460E070E079
:102AE00080E89FE308954FE79F775F934F933F936D
:102AF0002F930E942E162F913F914F915F910E942C
:102B0000C6140C948B1529F416F00C9475140C94BF
:102B1000BF140C947B140E94A514A8F39638A0F758
:102B200007F80F92E8942BE33AEA48EB5FE70E943C
:102B3000DC140F920F920F924DB75EB70F920E9466
:102B40007616E8E9F0E00E94BD154F915F91EF9194
:102B5000FF91E595EE1FFF1F49F0FE57E0684427FF
:102B6000EE0F441FFA95E1F74195550B0E94F015C1
:102B70000F9007FE0C94E4150895DF93CF931F93F5
:102B80000F93FF92EF92DF927B018C01689406C055
:102B9000DA2EEF010E94D914FE01E894A591259147
:102BA000359145915591A6F3EF010E941213FE0154
:102BB0009701A801DA9469F7DF90EF90FF900F91E9
:102BC0001F91CF91DF9108959B01AC0160E070E00F
:102BD00080E89FE30C946C130C9475140C94AA1663
:102BE0000E94A514D8F39923C9F3940F511DA3F3A0
:102BF0009150504094F059F0882332F0660F771FBF
:102C0000881F91505040C1F79E3F51052CF7880F07
:102C1000911D9695879597F908955F3FACF0983E82
:102C20009CF0BB27869577956795B79508F4B160BA
:102C30009395C1F7BB0F58F711F460FFE8CF6F5FB2
:102C40007F4F8F4F9F4FE3CF0C94C01416F00C941E
:102C5000AA160C947B1468940C9475140E94A51405
:102C6000A8F39923C1F3AEF3DF93CF931F930F9390
:102C7000FF92C92FDD2788232AF02197660F771F3F
:102C8000881FDAF720E030E040E85FEB9FE3883907
:102C900020F0803E38F021968F770E94FB12E0EC06
:102CA000F0E004C00E94FB12EDEEF0E00E94BD15C2
:102CB0008B01BE01EC01FB2E6F5771097595771FD3
:102CC000880B990B0E94161428E132E741E35FE379
:102CD0000E94D914AF2D9801AE01FF900F911F9162
:102CE000CF91DF910E9412130C948C14FA01DC0135
:102CF000AA0FBB1F9B01AC01BF5728F42227332723
:102D00004427507820C0B75190F4AB2F002446954B
:102D100037952795011CA395D2F3002071F0220F5F
:102D2000331F441FB395DAF30ED00C94FA126130BE
:102D30007105A0E88A07B94630F49B01AC0166270B
:102D4000772788279078309621F02083318342833B
:102D5000538308959F3F31F0915020F487957795E4
:102D60006795B795880F911D9695879597F9089562
:102D700097FB072E16F4009407D077FD09D00E9428
:102D8000D21607FC05D03EF4909581959F4F08958B
:102D9000709561957F4F0895EE0FFF1F0590F49198
:102DA000E02D0994AA1BBB1B51E107C0AA1FBB1F42
:102DB000A617B70710F0A61BB70B881F991F5A95C7
:102DC000A9F780959095BC01CD010895BB274A30A5
:102DD00031F4992322F4BDE2909581959F4F0C9494
:102DE000F216BB27FB015527AA27880F991FAA1F98
:102DF000A41710F0A41B83955051B9F7A05DAA3316
:102E000008F0A95DA193009779F7B111B1931192E0
:102E1000CB010C940B17DC01FC01672F7191772318
:102E2000E1F7329704C07C916D9370836291AE1785
:0A2E3000BF07C8F30895F894FFCF20
:102E3A00140012000A000800140012000A00080018
:102E4A00373B00000000000130003A0072617376DF
:102E5A0020202020202020202020202000636861BC
:102E6A0073202020202020202020202020006D698F
:102E7A006E202020202020202020202020200064D6
:102E8A00656E2720202020202020202020202000BE
:102E9A007A616B74202020202020202020202020EE
:102EAA00006E6F6368202020202020202020202010
:102EBA0020006E617374726F696B61206361736F56
:102ECA00762000636861736920202020202020205A
:102EDA00202020006D696E75746920202020202032
:102EEA002020202000736563796E646920202020E9
:102EFA002020202020005672656D613A2020202073
:102F0A0020202020202000202020202020202020D7
:102F1A0020202020202020006E6F6368202020209F
:102F2A00202020202000302E303025007261737658
:102F3A002020202020202020200064656E272020C9
:102F4A0020202020202020007A616B74202020205D
:062F5A00202020202000D1
:00000001FF
