:100000000C948E000C94A4030C94B6000C94B600CF
:100010000C94B6000C94B6000C94B6000C9400102E
:100020000C94B6000C94B6000C94B6000C94B60078
:100030000C94B6000C94B6000C94B6000C94B60068
:100040000C94B6000C94B6000C94B6000C94B60058
:100050000C94B6005504340413047604F4048705A4
:10006000050698061607A9071708F008CF08AE0876
:1000700011097A09FB09780A0C0B890B1D0C9A0CE3
:100080000F0EED0FED0FED0F460E7D0EB40EEB0EC5
:10009000220F590F900FC70F07634236B79BD8A79F
:1000A0001A39685618AEBAAB558C1D3CB7CC57639D
:1000B000BD6DEDFD753EF6177231BF000000803F4B
:1000C00008000000BE922449123EABAAAA2ABECD67
:1000D000CCCC4C3E00000080BEABAAAAAA3E0000D9
:1000E0000000BF000000803F0000000000084178D1
:1000F000D3BB4387D1133D190E3CC3BD4282AD2B08
:100100003E68EC8276BED98FE1A93E4C80EFFFBEFF
:1001100001C4FF7F3F0000000000621211241FBED7
:10012000CFE5D8E0DEBFCDBF11E0A0E6B0E0E8E16A
:10013000FDE202C005900D92AE37B107D9F721E07C
:10014000AEE7B1E001C01D92A83AB207E1F710E0B6
:10015000CEE8D0E004C02197FE010E943B16CD38C6
:10016000D107C9F70E944C120C948A160C94000017
:1001700084E680B981B181B9089584EA86BF06B664
:1001800007FEFDCF81B1089583B984E886BF06B626
:1001900007FEFDCF81B1089583B984E886BF06B616
:1001A00007FEFDCF81B1089584E986BF089584EAF2
:1001B00086BF06B607FEFDCF81B1089584EC86BFE9
:1001C00006B607FEFDCF81B1887F803511F483B17B
:1001D000089580E0089584E886BF06B607FEFDCF47
:1001E00081B1887F883511F483B1089580E0089546
:1001F00084E986BF0895282F30E0359527953595F9
:1002000027953595279535952795220F922F990F8C
:10021000990F290F8F70820F08959DEC899F912D62
:10022000112496959695969520E1929FA001112410
:10023000990F292F220F220F920F891B842B0895CB
:10024000CF93DF93EC010E94B8000E94BD0080EDC7
:100250000E94C40080E00E94CC0088810E940D01B1
:100260000E94CC0089810E940D010E94CC008A81ED
:100270000E940D010E94CC008B810E940D010E9402
:10028000CC008C810E940D010E94CC008D810E94C7
:100290000D010E94CC008E810E940D010E94CC00B5
:1002A00080E10E94CC000E94D400DF91CF9108959C
:1002B000CF93DF93EC010E94B8000E94BD0080ED57
:1002C0000E94C40080E00E94CC000E94D70081ED13
:1002D0000E94C4000E94DE000E94FB0088830E94EE
:1002E000DE000E94FB0089830E94DE000E94FB006A
:1002F0008A830E94DE000E94FB008B830E94DE0046
:100300000E94FB008C830E94DE000E94FB008D8314
:100310000E94EB000E94FB008E830E94F800DF9198
:10032000CF910895CF92DF92EF92FF920F931F9398
:10033000CF93DF93CDB7DEB729970FB6F894DEBF22
:100340000FBECDBF6C01E12CF12C83E0E816F10467
:100350002CF502E010E00E191F090C0D1D1DF8010F
:1003600080818A3020F480E790E00E942503F80124
:1003700080814AE0BE016F5F7F4F90E00E9455167A
:100380000E942503F2E0EF16F10420F482E790E0EA
:100390000E9425038FEFE81AF80AD7CF29960FB6E7
:1003A000F894DEBF0FBECDBFDF91CF911F910F91AB
:1003B000FF90EF90DF90CF900895CF92DF92EF9271
:1003C000FF920F931F93CF93DF93CDB7DEB729979B
:1003D0000FB6F894DEBF0FBECDBF6C0100E010E099
:1003E0000230110504F57601E00EF11EF70180815F
:1003F0008A3020F480E790E00E942503F701808195
:100400004AE0BE016F5F7F4F90E00E9455160E9448
:1004100025030115110521F482E790E00E942503D0
:100420000F5F1F4FDDCF29960FB6F894DEBF0FBECA
:10043000CDBFDF91CF911F910F91FF90EF90DF9093
:10044000CF9008956150710920E030E026173707FA
:100450007CF4DC01A20FB31F4C91FC01E60FF71FE7
:1004600050815C9340832F5F3F4F61507109EECF05
:1004700008950F931F93CF93DF938B019A01C0E0F0
:10048000D0E0009769F0F801EC0FFD1F6AE070E022
:100490000E942716805D8083862F972F2196F1CFAB
:1004A000C217D3073CF4F801EC0FFD1F80E38083F3
:1004B0002196F6CFBE01C8010E942202F801EC0F7E
:1004C000FD1F1082CE01DF91CF911F910F910895F2
:1004D0004F925F926F927F928F929F92AF92BF9254
:1004E000EF92FF920F931F93CF93DF932B013C0169
:1004F000EA0179010E944D134B015C01072E000CAB
:10050000880B990B0E9485139B01AC01C301B201BA
:100510000E9469122B013C0140E050E0BE01C40181
:100520000E9439028C01E114F10431F1FE01E80F5F
:10053000F91F8EE28083B7010F2C000C880B990BFA
:100540000E9485139B01AC0160E070E080E291E4C1
:100550000E94A2149B01AC01C301B2010E94351498
:100560000F5F1F4F0C0F1D1F0E944D13DC01CB01AD
:10057000A701B8010E943902CE01DF91CF911F91EE
:100580000F91FF90EF90BF90AF909F908F907F90D2
:100590006F905F904F9008958BBB88B38B7F88BB23
:1005A00088B38D7F88BB88B3816088BB80E791E08A
:1005B0000197F1F700C088B38E7F88BB80E791E098
:1005C0000197F1F700C0089587B3876087BB18BA19
:1005D0008FEF8ABB1BBA8FEF97ED0197F1F700C041
:1005E000000088E30E94CC028CE00E94CC0286E0EE
:1005F0000E94CC0281E00E94CC0208958BBB88B39C
:10060000846088BB88B38D7F88BB88B3816088BBDA
:1006100080E791E00197F1F700C088B38E7F88BB37
:1006200080E791E00197F1F700C0089580937F0182
:1006300060937E0190E4699F800D112480680E9480
:10064000CC0208950E94FE020895EF92FF920F934C
:100650001F93CF93DF937C01C0E0D0E087010C0FA4
:100660001D1FF80180818823F1F060917E01809147
:100670007F010E9416032196F80180810E942203C7
:1006800080917F018F5F80937F01803138F31092DA
:100690007F0180917E018F5F80937E018230F0F236
:1006A00010927E01DBCFDF91CF911F910F91FF90D0
:1006B000EF900895019709F046C06F3F7F4F09F012
:1006C00042C0E8E6F0E032812CE3818190E0239F94
:1006D000800D911D11249093890180938801E6E695
:1006E000F0E03081818190E0239F800D911D1124E5
:1006F0009093870180938601E4E6F0E03081818168
:1007000090E0239F800D911D11249093850180938B
:100710008401E2E6F0E03081818190E0239F800D4A
:10072000911D11249093830180938201E0E6F0E013
:100730003081818190E0239F800D911D1124909341
:1007400081018093800108951F920F920FB60F923E
:1007500011242F933F934F935F936F937F938F93C6
:100760009F93AF93BF93CF93EF93FF93F89440E0A1
:1007700050E060E070E022E62A95F1F7000080B3D7
:1007800090E09595879595958795959587959595FD
:100790008795873031F08B3021F08D3011F08E301D
:1007A00019F44F5F5F4F04C06F5F7F4F4150510995
:1007B000653671053CF01092940110929301789483
:1007C0000C94EE0F493E23E0520724F4693E23E0E7
:1007D00072078CF299278B30910509F4ACC424F48C
:1007E000079769F00C94E90F8D30910511F40C9482
:1007F0002E0D0E9711F40C94FD0D0C94E90F81E071
:1008000090E09093940180939301E0919101F09195
:1008100092013197EB30F10510F00C94ED0FE65D8D
:10082000FF4F0C943B16EAE8F1E082818F5F8283F0
:10083000883110F010928C0161E086E00E9416036E
:100840008DE391E00E94250361E086E00E9416039B
:1008500080918C014AE06FE971E090E00E945516AA
:100860000E9425030C94ED0FEAE8F1E081818F5F8F
:1008700081838C3310F010928B0161E087E00E943D
:1008800016038DE391E00E94250361E087E00E945A
:10089000160380918B014AE06FE971E090E00E94BD
:1008A00055160E9425030C94ED0FEAE8F1E08081D3
:1008B0008F5F80838C3310F010928A0161E088E0B2
:1008C0000E9416038DE391E00E94250361E088E019
:1008D0000E94160380918A014AE06FE971E090E07E
:1008E0000E9455160E9425030C94ED0FE6E6F0E0F9
:1008F000408150E0818190E090939C0180939B0126
:10090000E4E6F0E0A081B0E0B0939A01A0939901F1
:100910002181E22FF0E0F0939801E09397014F5F7F
:100920005F4F50939E0140939D01CCE3C49FB00163
:10093000C59F700D1124860F971FCA9F9001CB9FF2
:10094000300D11242E0F3F1F821793076CF49093E4
:100950009601809395016CE370E00E942716E6E60D
:10096000F0E0608381830EC0C901019790939601E6
:10097000809395016CE370E00E942716E6E6F0E0B4
:100980006083818360E080E00E94160384E790E04A
:100990000E94250361E080E00E94160385E890E054
:1009A0000E94250360E085E00E94160386E690E041
:1009B0000E94DD0160E08BE00E94160384E690E077
:1009C0000E94DD0161E085E00E94160382E690E06E
:1009D0000E94DD0161E08BE00E94160380E690E05A
:1009E0000E94DD010C94ED0FE6E6F0E0408150E05E
:1009F00050939E0140939D01618170E0E4E6F0E038
:100A0000A081B0E0B0939A01A09399012181E22FD7
:100A1000F0E0F0939801E09397016F5F7F4F709340
:100A20009C0160939B016C33710554F010929C0102
:100A300010929B014F5F5F4F50939E0140939D0129
:100A400020919D0130919E016CE3629FC001639FE4
:100A5000900D112440919B0150919C01840F951F92
:100A60006A9F90016B9F300D11242E0F3F1F82173C
:100A700093076CF490939601809395016CE370E07A
:100A80000E942716E6E6F0E0608381830EC0C9016C
:100A9000019790939601809395016CE370E00E941A
:100AA0002716E6E6F0E06083818360E080E00E9444
:100AB000160384E790E00E94250361E080E00E9435
:100AC000160386E990E00E94250360E085E00E941D
:100AD000160386E690E00E94DD0160E08BE00E9454
:100AE000160384E690E00E94DD0161E085E00E944B
:100AF000160382E690E00E94DD0161E08BE00E9437
:100B0000160380E690E00E94DD010C94ED0FE4E610
:100B1000F0E0408150E0818190E090939C018093CF
:100B20009B01E2E6F0E0A081B0E0B0939A01A093CF
:100B300099012181E22FF0E0F0939801E093970171
:100B40004F5F5F4F50939E0140939D01CCE3C49F44
:100B5000B001C59F700D1124860F971FCA9F900189
:100B6000CB9F300D11242E0F3F1F821793076CF47B
:100B700090939601809395016CE370E00E94271694
:100B8000E4E6F0E0608381830EC0C9010197909391
:100B90009601809395016CE370E00E942716E4E6CD
:100BA000F0E06083818360E080E00E94160387EAC2
:100BB00090E00E94250361E080E00E94160385E832
:100BC00090E00E94250360E085E00E94160386E61F
:100BD00090E00E94DD0160E08BE00E94160384E655
:100BE00090E00E94DD0161E085E00E94160382E64C
:100BF00090E00E94DD0161E08BE00E94160380E638
:100C000090E00E94DD010C94ED0FE4E6F0E04081FD
:100C100050E050939E0140939D01618170E0E2E6B7
:100C2000F0E0A081B0E0B0939A01A09399012181F6
:100C3000E22FF0E0F0939801E09397016F5F7F4F10
:100C400070939C0160939B016C33710554F010927A
:100C50009C0110929B014F5F5F4F50939E01409308
:100C60009D0120919D0130919E016CE3629FC00126
:100C7000639F900D112440919B0150919C01840F22
:100C8000951F6A9F90016B9F300D11242E0F3F1FFF
:100C9000821793076CF490939601809395016CE30F
:100CA00070E00E942716E4E6F0E0608381830EC0C6
:100CB000C901019790939601809395016CE370E0D0
:100CC0000E942716E4E6F0E06083818360E080E024
:100CD0000E94160387EA90E00E94250361E080E00D
:100CE0000E94160386E990E00E94250360E085E0FB
:100CF0000E94160386E690E00E94DD0160E08BE032
:100D00000E94160384E690E00E94DD0161E085E028
:100D10000E94160382E690E00E94DD0161E08BE014
:100D20000E94160380E690E00E94DD010C94ED0F16
:100D3000E2E6F0E0408150E0818190E090939C01F8
:100D400080939B01E0E6F0E0A081B0E0B0939A01CF
:100D5000A09399012181E22FF0E0F0939801E093B4
:100D600097014F5F5F4F50939E0140939D01CCE3ED
:100D7000C49FB001C59F700D1124860F971FCA9F95
:100D80009001CB9F300D11242E0F3F1F8217930728
:100D90006CF490939601809395016CE370E00E944F
:100DA0002716E2E6F0E0608381830EC0C901019757
:100DB00090939601809395016CE370E00E94271652
:100DC000E2E6F0E06083818360E080E00E94160349
:100DD00088EB90E00E94250361E080E00E9416030A
:100DE00085E890E00E94250360E085E00E941603FC
:100DF00086E690E00E94DD0160E08BE00E94160331
:100E000084E690E00E94DD0161E085E00E94160327
:100E100082E690E00E94DD0161E08BE00E94160313
:100E200080E690E00E94DD010C94ED0FE2E6F0E038
:100E3000408150E050939E0140939D01618170E09C
:100E4000E0E6F0E0A081B0E0B0939A01A0939901B0
:100E50002181E22FF0E0F0939801E09397016F5F1A
:100E60007F4F70939C0160939B016C33710554F02C
:100E700010929C0110929B014F5F5F4F50939E0117
:100E800040939D0120919D0130919E016CE3629FF2
:100E9000C001639F900D112440919B0150919C01D2
:100EA000840F951F6A9F90016B9F300D11242E0FA8
:100EB0003F1F821793076CF49093960180939501DE
:100EC0006CE370E00E942716E2E6F0E06083818325
:100ED0000EC0C901019790939601809395016CE330
:100EE00070E00E942716E2E6F0E06083818360E014
:100EF00080E00E94160388EB90E00E94250361E0E9
:100F000080E00E94160386E990E00E94250360E0DD
:100F100085E00E94160386E690E00E94DD0160E015
:100F20008BE00E94160384E690E00E94DD0161E000
:100F300085E00E94160382E690E00E94DD0161E0F8
:100F40008BE00E94160380E690E00E94DD010C9485
:100F5000ED0FE0E6F0E0808190E0418150E05093B9
:100F60009C0140939B0128E130E030939A0120934B
:100F700099011092980110929701019690939E0109
:100F800080939D016CE3689F9001699F300D11244F
:100F9000CA01820F931F803A25E092075CF4909378
:100FA0009601809395016CE370E00E9427166083A0
:100FB00081830CC08FE995E0909396018093950111
:100FC000E0E6F0E087E180838BE3818360E080E00E
:100FD0000E94160389EC90E00E94250361E080E006
:100FE0000E94160385E890E00E94250360E085E0FA
:100FF0000E94160386E690E00E94DD0160E08BE02F
:101000000E94160384E690E00E94DD0161E085E025
:101010000E94160382E690E00E94DD0161E08BE011
:101020000E94160380E690E00E94DD01D6C7E0E64C
:10103000F0E0808190E090939E0180939D0121815A
:1010400030E048E150E050939A01409399011092AA
:101050009801109297012F5F3F4F30939C0120938E
:101060009B012C3331054CF010929C0110929B0196
:10107000019690939E0180939D0180919D01909196
:101080009E014CE3489F9001499F300D11248091AF
:101090009B0190919C01820F931F803A25E092075B
:1010A0006CF490939601809395016CE370E00E943C
:1010B0002716E0E6F0E0608381830CC08FE995E0BD
:1010C0009093960180939501E0E6F0E087E18083BC
:1010D0008BE3818360E080E00E94160389EC90E05E
:1010E0000E94250361E080E00E94160386E990E0FB
:1010F0000E94250360E085E00E94160386E690E0EA
:101100000E94DD0160E08BE00E94160384E690E01F
:101110000E94DD0161E085E00E94160382E690E016
:101120000E94DD0161E08BE00E94160380E690E002
:101130000E94DD0152C782E090E090939401809379
:101140009301E0919101F09192013197EB30F1051B
:1011500008F043C7EB5CFF4F0C943B16EAE8F1E064
:10116000828181508283883118F087E180938C01DD
:1011700061E086E00E9416038DE391E00E94250362
:1011800061E086E00E94160380918C014AE06FE9DD
:1011900071E090E00E9455160E9425031EC7EAE800
:1011A000F1E08181815081838C3318F08BE380934F
:1011B0008B0161E087E00E9416038DE391E00E94BD
:1011C000250361E087E00E94160380918B014AE0CD
:1011D0006FE971E090E00E9455160E942503FDC65C
:1011E000EAE8F1E08081815080838C3318F08BE352
:1011F00080938A0161E088E00E9416038DE391E00C
:101200000E94250361E088E00E94160380918A0114
:101210004AE06FE971E090E00E9455160E942503B4
:10122000DCC6E6E6F0E0808190E0418150E050933A
:101230009C0140939B0110929A0110929901109287
:10124000980110929701019790939E0180939D01C0
:101250006CE3689F9001699F300D1124CA01820FD1
:10126000931F181619065CF49093960180939501CC
:101270006CE370E00E942716608381830AC081E0DE
:1012800090E09093960180939501E6E6F0E010825D
:10129000818360E080E00E94160384E790E00E9472
:1012A000250361E080E00E94160385E890E00E943B
:1012B000250360E085E00E94160386E690E00E9428
:1012C000DD0160E08BE00E94160384E690E00E945E
:1012D000DD0161E085E00E94160382E690E00E9455
:1012E000DD0161E08BE00E94160380E690E00E9441
:1012F000DD0173C6E6E6F0E0808190E090939E0108
:1013000080939D01218130E010929A011092990101
:1013100010929801109297012150310930939C014D
:1013200020939B012C3331055CF02BE330E03093AC
:101330009C0120939B01019790939E0180939D01B6
:1013400080919D0190919E014CE3489F9001499F9F
:10135000300D112480919B0190919C01820F931F6D
:10136000181619066CF490939601809395016CE31E
:1013700070E00E942716E6E6F0E0608381830AC0F1
:1013800081E090E09093960180939501E6E6F0E08D
:101390001082818360E080E00E94160384E790E081
:1013A0000E94250361E080E00E94160386E990E038
:1013B0000E94250360E085E00E94160386E690E027
:1013C0000E94DD0160E08BE00E94160384E690E05D
:1013D0000E94DD0161E085E00E94160382E690E054
:1013E0000E94DD0161E08BE00E94160380E690E040
:1013F0000E94DD01F2C5E4E6F0E0408150E0818129
:1014000090E090939C0180939B01E6E6F0E0A08140
:10141000B0E0B0939A01A09399012181E22FF0E00E
:10142000F0939801E09397014150510950939E0128
:1014300040939D01CCE3C49FB001C59F700D112462
:10144000860F971FCA9F9001CB9F300D11242E0F3E
:101450003F1F281739076CF49093960180939501EC
:101460006CE370E00E942716E4E6F0E0608381837D
:101470000EC0C901019690939601809395016CE38B
:1014800070E00E942716E4E6F0E06083818360E06C
:1014900080E00E94160387EA90E00E94250361E045
:1014A00080E00E94160385E890E00E94250360E03A
:1014B00085E00E94160386E690E00E94DD0160E070
:1014C0008BE00E94160384E690E00E94DD0161E05B
:1014D00085E00E94160382E690E00E94DD0161E053
:1014E0008BE00E94160380E690E00E94DD0175C546
:1014F000E4E6F0E0408150E050939E0140939D016E
:10150000618170E0E6E6F0E0A081B0E0B0939A017E
:10151000A09399012181E22FF0E0F0939801E093EC
:1015200097016150710970939C0160939B016C332A
:10153000710564F08BE390E090939C0180939B0194
:101540004150510950939E0140939D0120919D016E
:1015500030919E016CE3629FC001639F900D112446
:1015600040919B0150919C01840F951F6A9F9001AF
:101570006B9F300D11242E0F3F1F281739076CF475
:1015800090939601809395016CE370E00E9427167A
:10159000E4E6F0E0608381830EC0C9010196909378
:1015A0009601809395016CE370E00E942716E4E6B3
:1015B000F0E06083818360E080E00E94160387EAA8
:1015C00090E00E94250361E080E00E94160386E916
:1015D00090E00E94250360E085E00E94160386E605
:1015E00090E00E94DD0160E08BE00E94160384E63B
:1015F00090E00E94DD0161E085E00E94160382E632
:1016000090E00E94DD0161E08BE00E94160380E61D
:1016100090E00E94DD01E1C4E2E6F0E0408150E0AC
:10162000818190E090939C0180939B01E4E6F0E03F
:10163000A081B0E0B0939A01A09399012181E22F9B
:10164000F0E0F0939801E0939701415051095093D5
:101650009E0140939D01CCE3C49FB001C59F700DD6
:101660001124860F971FCA9F9001CB9F300D112424
:101670002E0F3F1F281739076CF490939601809323
:1016800095016CE370E00E942716E2E6F0E06083CB
:1016900081830EC0C90101969093960180939501B4
:1016A0006CE370E00E942716E2E6F0E0608381833D
:1016B00060E080E00E94160388EB90E00E94250322
:1016C00061E080E00E94160385E890E00E94250317
:1016D00060E085E00E94160386E690E00E94DD014E
:1016E00060E08BE00E94160384E690E00E94DD013A
:1016F00061E085E00E94160382E690E00E94DD0131
:1017000061E08BE00E94160380E690E00E94DD011C
:1017100064C4E2E6F0E0408150E050939E014093C3
:101720009D01618170E0E4E6F0E0A081B0E0B0935B
:101730009A01A09399012181E22FF0E0F0939801A2
:10174000E09397016150710970939C0160939B0134
:101750006C33710564F08BE390E090939C0180936F
:101760009B014150510950939E0140939D0120914E
:101770009D0130919E016CE3629FC001639F900DBB
:10178000112440919B0150919C01840F951F6A9FE9
:1017900090016B9F300D11242E0F3F1F2817390722
:1017A0006CF490939601809395016CE370E00E9435
:1017B0002716E2E6F0E0608381830EC0C90101963E
:1017C00090939601809395016CE370E00E94271638
:1017D000E2E6F0E06083818360E080E00E9416032F
:1017E00088EB90E00E94250361E080E00E941603F0
:1017F00086E990E00E94250360E085E00E941603E0
:1018000086E690E00E94DD0160E08BE00E94160316
:1018100084E690E00E94DD0161E085E00E9416030D
:1018200082E690E00E94DD0161E08BE00E941603F9
:1018300080E690E00E94DD01D0C3E0E6F0E0408168
:1018400050E0818190E090939C0180939B01E2E6BF
:10185000F0E0A081B0E0B0939A01A09399012181BA
:10186000E22FF0E0F0939801E09397014150510985
:1018700050939E0140939D01CCE3C49FB001C59F4E
:10188000700D1124860F971FCA9F9001CB9F300DBA
:1018900011242E0F3F1F281739076CF490939601DF
:1018A000809395016CE370E00E942716E0E6F0E07B
:1018B000608381830EC0C901019690939601809345
:1018C00095016CE370E00E942716E0E6F0E060838B
:1018D000818360E080E00E94160389EC90E00E9422
:1018E000250361E080E00E94160385E890E00E94F5
:1018F000250360E085E00E94160386E690E00E94E2
:10190000DD0160E08BE00E94160384E690E00E9417
:10191000DD0161E085E00E94160382E690E00E940E
:10192000DD0161E08BE00E94160380E690E00E94FA
:10193000DD0153C3E0E6F0E0408150E050939E01AA
:1019400040939D01618170E0E2E6F0E0A081B0E0AB
:10195000B0939A01A09399012181E22FF0E0F093D6
:101960009801E09397016150710970939C01609315
:101970009B016C33710564F08BE390E090939C01C4
:1019800080939B014150510950939E0140939D01CA
:1019900020919D0130919E016CE3629FC001639F85
:1019A000900D112440919B0150919C01840F951F33
:1019B0006A9F90016B9F300D11242E0F3F1F281737
:1019C00039076CF490939601809395016CE370E075
:1019D0000E942716E0E6F0E0608381830EC0C90113
:1019E000019690939601809395016CE370E00E94BC
:1019F0002716E0E6F0E06083818360E080E00E94EB
:101A0000160389EC90E00E94250361E080E00E94CB
:101A1000160386E990E00E94250360E085E00E94BD
:101A2000160386E690E00E94DD0160E08BE00E94F4
:101A3000160384E690E00E94DD0161E085E00E94EB
:101A4000160382E690E00E94DD0161E08BE00E94D7
:101A5000160380E690E00E94DD01BFC283E090E0C3
:101A600090939401809393018091910190919201C0
:101A70008230910509F467C034F4009759F001975A
:101A800009F486C0B5C083309105C1F10C970CF400
:101A9000A4C2AEC083E090E0909392018093910144
:101AA00080E090E08730910554F4FC01E859FF4F45
:101AB0002081FC01E657FE4F20830196F3CF60E0C2
:101AC00080E00E9416038AED90E00E94250361E009
:101AD00080E00E9416038BEE90E00E94250361E0F7
:101AE00086E00E94160380918C014AE06FE971E064
:101AF00090E00E9455160E9425036FC282E090E09C
:101B0000909392018093910160E080E00E9416031F
:101B10008AED90E00E94250361E080E00E941603B8
:101B20008CEF90E00E94250361E087E00E9416039D
:101B300080918B014AE06FE971E090E00E945516B8
:101B40000E9425034AC281E090E090939201809325
:101B5000910160E080E00E9416038AED90E00E940F
:101B6000250361E080E00E9416038DE091E00E9471
:101B7000250361E088E00E94160380918A014AE013
:101B80006FE971E090E00E9455160E94250325C27E
:101B9000109292011092910180E090E087309105BF
:101BA00054F4FC01E657FE4F2081FC01E859FF4F39
:101BB00020830196F3CF88E690E00E94200160E048
:101BC00080E00E9416038EE191E00E94250360E010
:101BD00087E00E94160388E690E00E94920161E08F
:101BE00080E00E9416038FE291E00E942503F5C178
:101BF0001092920110929101F0C184E090E09093D4
:101C0000940180939301E0919101F0919201EC3065
:101C1000F10508F0D9C1E05CFF4F0C943B1684E05D
:101C200090E0909392018093910160E080E00E94A7
:101C3000160384E790E00E94250361E080E00E94A3
:101C4000160385E890E00E94250360E085E00E948D
:101C5000160386E690E00E94DD0160E08BE00E94C2
:101C6000160384E690E00E94DD0161E085E00E94B9
:101C7000160382E690E00E94DD0161E08BE00E94A5
:101C8000160380E690E00E94DD01A7C185E090E0A8
:101C9000909392018093910160E080E00E9416038E
:101CA00084E790E00E94250361E080E00E94160333
:101CB00086E990E00E94250360E085E00E9416031B
:101CC00086E690E00E94DD0160E08BE00E94160352
:101CD00084E690E00E94DD0161E085E00E94160349
:101CE00082E690E00E94DD0161E08BE00E94160335
:101CF00080E690E00E94DD0170C186E090E0909364
:101D000092018093910160E080E00E94160387EACF
:101D100090E00E94250361E080E00E94160385E8C0
:101D200090E00E94250360E085E00E94160386E6AD
:101D300090E00E94DD0160E08BE00E94160384E6E3
:101D400090E00E94DD0161E085E00E94160382E6DA
:101D500090E00E94DD0161E08BE00E94160380E6C6
:101D600090E00E94DD0139C187E090E090939201FC
:101D70008093910160E080E00E94160387EA90E082
:101D80000E94250361E080E00E94160386E990E04E
:101D90000E94250360E085E00E94160386E690E03D
:101DA0000E94DD0160E08BE00E94160384E690E073
:101DB0000E94DD0161E085E00E94160382E690E06A
:101DC0000E94DD0161E08BE00E94160380E690E056
:101DD0000E94DD0102C188E090E09093920180931F
:101DE000910160E080E00E94160388EB90E00E9481
:101DF000250361E080E00E94160385E890E00E94E0
:101E0000250360E085E00E94160386E690E00E94CC
:101E1000DD0160E08BE00E94160384E690E00E9402
:101E2000DD0161E085E00E94160382E690E00E94F9
:101E3000DD0161E08BE00E94160380E690E00E94E5
:101E4000DD01CBC089E090E09093920180939101F5
:101E500060E080E00E94160388EB90E00E9425037A
:101E600061E080E00E94160386E990E00E9425036D
:101E700060E085E00E94160386E690E00E94DD01A6
:101E800060E08BE00E94160384E690E00E94DD0192
:101E900061E085E00E94160382E690E00E94DD0189
:101EA00061E08BE00E94160380E690E00E94DD0175
:101EB00094C08AE090E0909392018093910160E059
:101EC00080E00E94160389EC90E00E94250361E007
:101ED00080E00E94160385E890E00E94250360E000
:101EE00085E00E94160386E690E00E94DD0160E036
:101EF0008BE00E94160384E690E00E94DD0161E021
:101F000085E00E94160382E690E00E94DD0161E018
:101F10008BE00E94160380E690E00E94DD015DC028
:101F20008BE090E0909392018093910160E080E0DB
:101F30000E94160389EC90E00E94250361E080E096
:101F40000E94160386E990E00E94250360E085E088
:101F50000E94160386E690E00E94DD0160E08BE0BF
:101F60000E94160384E690E00E94DD0161E085E0B6
:101F70000E94160382E690E00E94DD0161E08BE0A2
:101F80000E94160380E690E00E94DD0126C01092B8
:101F900092011092910160E080E00E9416038EE1B0
:101FA00091E00E94250360E087E00E94160388E626
:101FB00090E00E94920161E080E00E9416038FE2AF
:101FC00091E00E94250309C01092920110929101A4
:101FD00004C010929401109293017894FF91EF91B4
:101FE000CF91BF91AF919F918F917F916F915F91B1
:101FF0004F913F912F910F900FBE0F901F9018950A
:102000001F920F920FB60F9211244F925F926F9210
:102010007F92AF92BF92CF92DF92EF92FF920F9397
:102020001F932F933F934F935F936F937F938F9360
:102030009F93AF93BF93CF93DF93EF93FF93F89466
:10204000E8E6F0E080818F5F80838C3370F010824F
:1020500081818F5F81838C3340F0118282818F5F19
:102060008283883110F010926A00809191019091E2
:102070009201892B09F0B0C160E080E00E94160354
:102080008EE191E00E94250360E087E00E94160344
:1020900088E690E00E949201E8E6F0E092818CE30D
:1020A000C181D0E0899FC00DD11D1124D093890139
:1020B000C0938801E6E6F0E09081E180F12C899FF1
:1020C000E00CF11C1124F0928701E0928601E4E615
:1020D000F0E09081018110E0899F000D111D112415
:1020E0001093850100938401E2E6F0E09081A180E5
:1020F000B12C899FA00CB11C1124B0928301A09235
:102100008201E0E6F0E09081C180D12C899FC00C73
:10211000D11C1124D0928101C0928001CE15DF051F
:1021200094F41CBE61E080E00E94160380E491E01C
:102130000E94250361E085E00E9416038EE491E091
:102140000E94250349C1C017D1070CF07FC06091E0
:10215000680070E080E090E00E94851320E030E0AD
:1021600040E752E40E94DB122B013C01BE01DD0F6F
:10217000880B990B0E948513A30192010E946A1299
:102180002B013C01B7010F2C000C880B990B0E940E
:1021900085139B01AC01C301B2010E9469122B019E
:1021A0003C01B8016E197F09072E000C880B990BB2
:1021B0000E9485139B01AC01C301B2010E94DB1296
:1021C00020E030E04FE753E40E9435140E9454139E
:1021D0006CBF61E080E00E94160384E591E00E94FC
:1021E000250361E085E00E9416036CB770E080E093
:1021F00090E00E94851323E333E343E250E40E941E
:10220000DB1220E030E040E251E40E94D612882345
:1022100024F480E790E00E9425036CB770E080E032
:1022200090E00E94851323E333E343E250E40E94ED
:10223000DB1222E030E04FE951E00E9468020E9488
:10224000250382E591E00E942503C6C0CA15DB057F
:102250003CF58FEF8CBF61E080E00E94160382E6C0
:1022600091E00E94250361E085E00E9416036CB7AF
:1022700070E080E090E00E94851323E333E343E2C3
:1022800050E40E94DB1222E030E04FE951E00E946E
:1022900068020E94250382E591E00E9425039CC00C
:1022A000CC15DD050CF087C06091680070E080E01F
:1022B00090E00E94851320E030E040E752E40E9465
:1022C000DB122B013C01BE01DD0F880B990B0E9434
:1022D0008513A30192010E946A122B013C01B501F2
:1022E0000B2C000C880B990B0E9485139B01AC01F1
:1022F000C301B2010E9469122B013C01B6016A19A7
:102300007B09072E000C880B990B0E9485139B01FB
:10231000AC01C301B2010E94DB129B01AC0160E081
:1023200070E080E89FE30E94691220E030E04FE710
:1023300053E40E9435140E9454136CBF61E080E0A6
:102340000E94160380E791E00E94250361E085E08A
:102350000E9416036CB770E080E090E00E94851345
:1023600023E333E343E250E40E94DB1220E030E059
:1023700040E251E40E94D612882324F480E790E0E2
:102380000E9425036CB770E080E090E00E94851306
:1023900023E333E343E250E40E94DB1222E030E027
:1023A0004FE951E00E9468020E94250382E591E016
:1023B0000E94250311C01CBE61E080E00E9416034C
:1023C00080E491E00E94250361E085E00E9416030D
:1023D0008EE491E00E9425038091690081110AC07A
:1023E00080916F00882331F010926F0088E690E0B2
:1023F0000E945801809169008B3339F480916F00FD
:10240000811103C081E080936F007894FF91EF9178
:10241000DF91CF91BF91AF919F918F917F916F91FC
:102420005F914F913F912F911F910F91FF90EF90EE
:10243000DF90CF90BF90AF907F906F905F904F9064
:102440000F900FBE0F901F90189587B387BB88B36E
:10245000806F88BB8BB780648BBF85B78A6085BF70
:1024600084B784BF789408958CB78CBF83B789668E
:1024700083BF87B3886087BB789408958EE398E321
:102480009BBD8ABD8FB58FBD8EB58D608EBD89B762
:10249000806189BF789408952FEF8FE392E02150F7
:1024A00080409040E1F700C000000E9425120E9489
:1024B00034120E943E120E94E40288E690E00E94DC
:1024C0005801FFCF6FEF7FEF81E090E00E945A0349
:1024D00008955058BB27AA270E9481120C94FB1321
:1024E0000E94ED1338F00E94F41320F039F49F3F5E
:1024F00019F426F40C94EA130EF4E095E7FB0C941F
:10250000E413E92F0E940C1458F3BA1762077307FB
:102510008407950720F079F4A6F50C942E140EF498
:10252000E0950B2EBA2FA02D0B01B90190010C01E3
:10253000CA01A0011124FF27591B99F0593F50F4FB
:10254000503E68F11A16F040A22F232F342F442753
:10255000585FF3CF469537952795A795F04053954B
:10256000C9F77EF41F16BA0B620B730B840BBAF01B
:102570009150A1F0FF0FBB1F661F771F881FC2F786
:102580000EC0BA0F621F731F841F48F4879577959A
:102590006795B795F7959E3F08F0B0CF9395880F54
:1025A00008F09927EE0F9795879508950E94C0131C
:1025B00008F481E008950E94EF120C94FB130E942E
:1025C000F41358F00E94ED1340F029F45F3F29F016
:1025D0000C94E41351110C942F140C94EA130E94E0
:1025E0000C1468F39923B1F3552391F3951B550B04
:1025F000BB27AA2762177307840738F09F5F5F4FD6
:10260000220F331F441FAA1FA9F335D00E2E3AF014
:10261000E0E832D091505040E695001CCAF72BD02C
:10262000FE2F29D0660F771F881FBB1F261737077D
:102630004807AB07B0E809F0BB0B802DBF01FF27AF
:1026400093585F4F3AF09E3F510578F00C94E41395
:102650000C942F145F3FE4F3983ED4F3869577955E
:102660006795B795F7959F5FC9F7880F911D969568
:10267000879597F90895E1E0660F771F881FBB1FC4
:10268000621773078407BA0720F0621B730B840B71
:10269000BA0BEE1F88F7E09508950E9454136894D2
:1026A000B1110C942F1408950E94141488F09F57B0
:1026B00098F0B92F9927B751B0F0E1F0660F771F66
:1026C000881F991F1AF0BA95C9F714C0B13091F05C
:1026D0000E942E14B1E008950C942E14672F782FC9
:1026E0008827B85F39F0B93FCCF386957795679521
:1026F000B395D9F73EF490958095709561957F4F8D
:102700008F4F9F4F0895E89409C097FB3EF4909532
:102710008095709561957F4F8F4F9F4F9923A9F0BA
:10272000F92F96E9BB279395F69587957795679549
:10273000B795F111F8CFFAF4BB0F11F460FF1BC08D
:102740006F5F7F4F8F4F9F4F16C0882311F096E920
:1027500011C0772321F09EE8872F762F05C06623CE
:1027600071F096E8862F70E060E02AF09A95660F87
:10277000771F881FDAF7880F9695879597F9089540
:10278000990F0008550FAA0BE0E8FEEF1616170682
:10279000E807F907C0F012161306E407F50798F0EA
:1027A000621B730B840B950B39F40A2661F0232B03
:1027B000242B252B21F408950A2609F4A140A6957F
:1027C0008FEF811D811D089597F99F6780E870E064
:1027D00060E008959FEF80EC089500240A94161697
:1027E000170618060906089500240A9412161306FF
:1027F000140605060895092E0394000C11F488238D
:1028000052F0BB0F40F4BF2B11F460FF04C06F5FA8
:102810007F4F8F4F9F4F089557FD9058440F551F7E
:1028200059F05F3F71F04795880F97FB991F61F052
:102830009F3F79F087950895121613061406551FC9
:10284000F2CF4695F1DF08C0161617061806991F35
:10285000F1CF86957105610508940895E894BB272A
:1028600066277727CB0197F908950E9448140C94A6
:10287000FB130E94ED1338F00E94F41320F095230F
:1028800011F00C94E4130C94EA1311240C942F14FB
:102890000E940C1470F3959FC1F3950F50E0551FE3
:1028A000629FF001729FBB27F00DB11D639FAA27A5
:1028B000F00DB11DAA1F649F6627B00DA11D661FF4
:1028C000829F2227B00DA11D621F739FB00DA11D15
:1028D000621F839FA00D611D221F749F3327A00DCF
:1028E000611D231F849F600D211D822F762F6A2F6B
:1028F00011249F5750409AF0F1F088234AF0EE0FD0
:10290000FF1FBB1F661F771F881F91505040A9F7FC
:102910009E3F510580F00C94E4130C942F145F3FFC
:10292000E4F3983ED4F3869577956795B795F79538
:10293000E7959F5FC1F7FE2B880F911D96958795B0
:1029400097F90895FA01EE0FFF1F30962105310522
:10295000A1F16115710561F48038BFE39B0749F16E
:1029600068949038810561F08038BFEF9B0741F093
:1029700099234AF5FF3FE1053105210519F1E89456
:102980000894E795D901AA2329F4AB2FBE2FF85F4D
:10299000D0F310C0FF5F70F4A695E0F7F73950F060
:1029A00019F0FF3A38F49F779F930DD00F9007FCF2
:1029B0009058089546F00C94EA1360E070E080E8C7
:1029C0009FE308954FE79F775F934F933F932F9334
:1029D0000E949D152F913F914F915F910E94351458
:1029E0000C94FA1429F416F00C94E4130C942E149D
:1029F0000C94EA130E941414A8F39638A0F707F871
:102A00000F92E8942BE33AEA48EB5FE70E944B14FD
:102A10000F920F920F924DB75EB70F920E94E5157D
:102A2000E8E9F0E00E942C154F915F91EF91FF9142
:102A3000E595EE1FFF1F49F0FE57E0684427EE0FB3
:102A4000441FFA95E1F74195550B0E945F150F90D1
:102A500007FE0C9453150895DF93CF931F930F93A4
:102A6000FF92EF92DF927B018C01689406C0DA2E10
:102A7000EF010E944814FE01E894A591259135913B
:102A800045915591A6F3EF010E948112FE01970135
:102A9000A801DA9469F7DF90EF90FF900F911F91F2
:102AA000CF91DF9108959B01AC0160E070E080E878
:102AB0009FE30C94DB120C94E4130C9419160E94FF
:102AC0001414D8F39923C9F3940F511DA3F3915013
:102AD000504094F059F0882332F0660F771F881F1A
:102AE00091505040C1F79E3F51052CF7880F911D22
:102AF0009695879597F908955F3FACF0983E9CF0C6
:102B0000BB27869577956795B79508F4B16093953F
:102B1000C1F7BB0F58F711F460FFE8CF6F5F7F4F2D
:102B20008F4F9F4FE3CF0C942F1416F00C9419166F
:102B30000C94EA1368940C94E4130E941414A8F300
:102B40009923C1F3AEF3DF93CF931F930F93FF92BB
:102B5000C92FDD2788232AF02197660F771F881F4A
:102B6000DAF720E030E040E85FEB9FE3883920F0BF
:102B7000803E38F021968F770E946A12E0ECF0E0F8
:102B800004C00E946A12EDEEF0E00E942C158B0149
:102B9000BE01EC01FB2E6F5771097595771F880BED
:102BA000990B0E94851328E132E741E35FE30E941D
:102BB0004814AF2D9801AE01FF900F911F91CF9156
:102BC000DF910E9481120C94FB13FA01DC01AA0F21
:102BD000BB1F9B01AC01BF5728F422273327442792
:102BE000507820C0B75190F4AB2F0024469537950C
:102BF0002795011CA395D2F3002071F0220F331FFB
:102C0000441FB395DAF30ED00C946912613071054C
:102C1000A0E88A07B94630F49B01AC016627772704
:102C200088279078309621F0208331834283538324
:102C300008959F3F31F0915020F4879577956795DF
:102C4000B795880F911D9695879597F9089597FBED
:102C5000072E16F4009407D077FD09D00E94411684
:102C600007FC05D03EF4909581959F4F089570958F
:102C700061957F4F0895EE0FFF1F0590F491E02DB1
:102C80000994AA1BBB1B51E107C0AA1FBB1FA617B3
:102C9000B70710F0A61BB70B881F991F5A95A9F705
:102CA00080959095BC01CD010895BB274A3031F441
:102CB000992322F4BDE2909581959F4F0C94611663
:102CC000BB27FB015527AA27880F991FAA1FA41706
:102CD00010F0A41B83955051B9F7A05DAA3308F0FA
:102CE000A95DA193009779F7B111B1931192CB012E
:102CF0000C947A16DC01FC01672F71917723E1F7C0
:102D0000329704C07C916D9370836291AE17BF07B8
:082D1000C8F30895F894FFCF09
:102D1800140012000A000800373B00000000000100
:102D280030003A0072617376202020202020202075
:102D3800202020200063686173202020202020208C
:102D48002020202020006D696E20202020202020B7
:102D58002020202020200064656E272020202020AD
:102D680020202020202020007A616B742020202041
:102D78002020202020202020006E6F636820202043
:102D8800202020202020202020006E617374726F84
:102D9800696B61206361736F762000636861736992
:102DA8002020202020202020202020006D696E7502
:102DB80074692020202020202020202000736563B3
:102DC800796E64692020202020202020200056725F
:102DD800656D613A2020202020202020202000201E
:102DE80020202020202020202020202020202000FB
:102DF8006E6F636820202020202020202000302EA5
:102E08003030250072617376202020202020202079
:102E1800200064656E27202020202020202020000C
:0E2E28007A616B7420202020202020202000C2
:00000001FF
