S01E00004C45445F436F6E74726F6C6C65725F4C4344313630322E73726563B3
S11300000C948E000C9424030C94B6000C94B6004B
S11300100C94B6000C94B6000C94B6000C949F0992
S11300200C94B6000C94B6000C94B6000C94B60074
S11300300C94B6000C94B6000C94B6000C94B60064
S11300400C94B6000C94B6000C94B6000C94B60054
S11300500C94B6008903800377039203D6032F041C
S11300607304CC04100569059D0535061E060706B4
S113007044067106B506E80632076507AF07EB07C5
S1130080D7088D098D098D09DE08E508EC08F30809
S1130090FA08010938093F0907634236B79BD8A714
S11300A01A39685618AEBAAB558C1D3CB7CC576399
S11300B0BD6DEDFD753EF6177231BF000000803F47
S11300C008000000BE922449123EABAAAA2ABECD63
S11300D0CCCC4C3E00000080BEABAAAAAA3E0000D5
S11300E00000BF000000803F0000000000084178CD
S11300F0D3BB4387D1133D190E3CC3BD4282AD2B04
S11301003E68EC8276BED98FE1A93E4C80EFFFBEFB
S113011001C4FF7F3F0000000000100C11241FBE2B
S1130120CFE5D8E0DEBFCDBF11E0A0E6B0E0E2E26B
S1130130F1E202C005900D92A638B107D9F721E08B
S1130140A6E8B1E001C01D92A03BB207E1F710E0C0
S1130150CEE8D0E004C02197FE010E943510CD38CE
S1130160D107C9F70E94A40B0C948F100C940000C3
S113017084E680B981B181B9089584EA86BF06B660
S113018007FEFDCF81B1089583B984E886BF06B622
S113019007FEFDCF81B1089584EC86BF06B607FE45
S11301A0FDCF81B1887F803511F483B1089580E05B
S11301B0089584E886BF06B607FEFDCF81B1887F27
S11301C0883511F483B1089580E00895982F9695A9
S11301D0969596959E71292F220F220F920F8F705C
S11301E0890F08956AE00E941510292F30E1839F3A
S11301F0C0011124822B0895CF93DF93EC010E9458
S1130200B8000E94BD0080ED0E94C40080E00E94FE
S1130210C40088810E94F2000E94C40089810E9467
S1130220F2000E94C4008A810E94F2000E94C4006D
S11302308B810E94F2000E94C4008C810E94F20013
S11302400E94C4008D810E94F2000E94C4008E812D
S11302500E94F2000E94C40080E10E94C40084E96C
S113026086BFDF91CF910895CF93DF93EC010E9475
S1130270B8000E94BD0080ED0E94C40080E00E948E
S1130280C4000E94BD0081ED0E94C4000E94CC0005
S11302900E94E60088830E94CC000E94E6008983C5
S11302A00E94CC000E94E6008A830E94CC000E9437
S11302B0E6008B830E94CC000E94E6008C830E949F
S11302C0CC000E94E6008D830E94D9000E94E600C3
S11302D08E8384E986BFDF91CF910895E199FECFA3
S11302E090E09FBB8EBB6DBBE29AE19A0895E199C1
S11302F0FECF90E09FBB8EBBE09A8DB30895EF9242
S1130300FF920F931F93CF93DF93CDB7DEB7299757
S11303100FB6F894DEBF0FBECDBF03967C0100E09C
S113032010E0F70182917F018A3020F488E790E0A1
S11303300E94F602F70180814AE0BE016F5F7F4FA1
S113034090E00E945A100E94F6020230110521F03A
S11303508AE790E00E94F6020F5F1F4F03301105F9
S113036001F729960FB6F894DEBF0FBECDBFDF911B
S1130370CF911F910F91FF90EF9008950F931F93CA
S1130380CF93DF93CDB7DEB729970FB6F894DEBFCE
S11303900FBECDBF8C01FC0180818A3020F488E738
S11303A090E00E94F602F80180814AE0BE016F5F8E
S11303B07F4F90E00E945A100E94F6028AE790E074
S11303C00E94F602F80181818A3020F488E790E0E7
S11303D00E94F602F80181814AE0BE016F5F7F4FFF
S11303E090E00E945A100E94F60229960FB6F894E3
S11303F0DEBF0FBECDBFDF91CF911F910F91089546
S11304009B0121503109FC01E60FF71FDC01AD010E
S1130410481B590B421753073CF44C9152915D937E
S1130420408321503109F3CF0895EF92FF920F9347
S11304301F93CF93DF938B019A01FB014AE0E42ED3
S1130440F12CEF01C01BD10B009739F0B7010E94CA
S11304502110805D8193CB01F4CFF801EC0FFD1FD7
S113046080E3C217D3071CF421968193FACFBE010F
S1130470C8010E940002F801EC0FFD1F1082CE019A
S1130480DF91CF911F910F91FF90EF9008952F92DC
S11304903F924F925F926F927F928F929F92AF9210
S11304A0BF92CF92DF92EF92FF920F931F93CF935D
S11304B0DF934B015C01EA0189010E943B0D6B0152
S11304C07C0140E050E0BE01C6010E9415021C01FF
S11304D00115110599F1FE01E80FF91F8EE28083E1
S11304E0B801012E000C880B990B0E94730D9B011F
S11304F0AC0160E070E080E291E40E94900E2B0178
S11305003C01B601DD0C880B990B0E94730D9B0115
S1130510AC01C501B4010E94570C2FEF221A320A14
S11305202C0E3D1EA30192010E94230E0E943B0D3E
S1130530DC01CB01A801B1010E941502CE01DF91BB
S1130540CF911F910F91FF90EF90DF90CF90BF90CC
S1130550AF909F908F907F906F905F904F903F905F
S11305602F9008958BBBC098C198C29A80E791E000
S11305700197F1F700C0C29880E791E00197F1F785
S113058000C0089587B3876087BB18BA8FEF8ABB12
S11305901BBA8FEF97ED0197F1F700C0000088E3D5
S11305A00E94B2028CE00E94B20286E00E94B20273
S11305B081E00C94B2028BBBC09AC198C29A80E7C6
S11305C091E00197F1F700C0C29880E791E00197AC
S11305D0F1F700C00895809387016093860190E449
S11305E0699F800D112480680C94B2020F931F93AD
S11305F0CF93DF93EC018E018881882301F1609110
S11306008601809187010E94EB022196F801808186
S11306100E94DB02809187018F5F803118F4809300
S11306208701E9CF10928701809186018F5F823024
S113063018F480938601DFCF10928601DCCFDF911E
S1130640CF911F910F9108951F920F920FB60F92A1
S113065011242F933F934F935F936F937F938F93C3
S11306609F93AF93BF93EF93FF93F89420E030E010
S113067040E050E081E38A95F1F7000083B3807F86
S1130680803731F0803B21F0803D11F0803E19F439
S11306902F5F3F4F04C04F5F5F4F215031094536F4
S11306A051050CF036C6293C310524F3803B09F48E
S11306B0E5C420F4803709F468C52BC6803D09F4ED
S11306C093C2803E09F025C681E090E090939C019E
S11306D080939B01E0919901F0919A013197EB305D
S11306E0F10508F01AC6E65DFF4F0C9435108091B1
S11306F094018F5F883108F490C2109294018FC2E4
S1130700809193018F5F8C3308F49EC21092930101
S11307109DC2809192018F5F8C3308F4ACC2109219
S11307209201ABC240916E0050E080916F0090E066
S11307309093A4018093A30160916C00262F30E074
S11307403093A2012093A10120916D0030E03093F9
S1130750A00120939F014F5F5F4F5093A6014093E8
S1130760A5017CE3749FF001759FF00D11248E0F99
S11307709F1F4CE3649F200D311D112482179307A2
S113078014F0C901019790939E0180939D016CE33D
S113079070E00E94211060936E0080936F0060E00F
S11307A080E00E94EB028CE790E037C580916E00F8
S11307B090E09093A6018093A50140916F0050E0D2
S11307C060916C00262F30E03093A2012093A101A8
S11307D020916D0030E03093A00120939F014F5F82
S11307E05F4F4C3351052CF45093A4014093A30163
S11307F009C01092A4011092A30101969093A6013E
S11308008093A5018091A5019091A6017CE3789F36
S1130810A001799F500D11248091A3019091A4010E
S1130820840F951F4CE3649F200D311D1124821702
S1130830930714F0C901019790939E0180939D0141
S11308406CE370E00E94211060936E0080936F004F
S113085060E080E00E94EB028CE790E0BCC1409134
S11308606C0050E080916D0090E09093A40180931F
S1130870A30160916A00262F30E03093A2012093F7
S1130880A10120916B0030E03093A00120939F01DF
S11308904F5F5F4F5093A6014093A5017CE3749F83
S11308A0F001759FF00D11248E0F9F1F4CE3649F80
S11308B0200D311D11248217930714F0C9010197EB
S11308C090939E0180939D016CE370E00E9421103F
S11308D060936C0080936D0060E080E00E94EB0206
S11308E08FEA90E09AC480916C0090E09093A60106
S11308F08093A50140916D0050E060916A00262F1D
S113090030E03093A2012093A10120916B0030E0EC
S11309103093A00120939F014F5F5F4F4C335105EB
S11309202CF45093A4014093A30109C01092A40194
S11309301092A30101969093A6018093A501809142
S1130940A5019091A6017CE3789FA001799F500DA9
S113095011248091A3019091A401840F951F4CE36D
S1130960649F200D311D11248217930714F0C901CF
S1130970019790939E0180939D016CE370E00E9427
S1130980211060936C0080936D0060E080E00E9411
S1130990EB028FEA90E01FC140916A0050E0809121
S11309A06B0090E09093A4018093A3016091680090
S11309B0262F30E03093A2012093A10120916900F9
S11309C030E03093A00120939F014F5F5F4F50931D
S11309D0A6014093A5017CE3749FF001759FF00D7F
S11309E011248E0F9F1F4CE3649F200D311D112491
S11309F08217930714F0C901019790939E01809385
S1130A009D016CE370E00E94211060936A00809362
S1130A106B0060E080E00E94EB0280EC90E0FDC39C
S1130A2080916A0090E09093A6018093A501409183
S1130A306B0050E060916800262F30E03093A201F3
S1130A402093A1012091690030E03093A00120930C
S1130A509F014F5F5F4F4C3351052CF45093A40119
S1130A604093A30109C01092A4011092A30101961E
S1130A709093A6018093A5018091A5019091A60170
S1130A807CE3789FA001799F500D11248091A301EC
S1130A909091A401840F951F4CE3649F200D311D98
S1130AA011248217930714F0C901019790939E01B2
S1130AB080939D016CE370E00E94211060936A00B2
S1130AC080936B0060E080E00E94EB0280EC90E099
S1130AD082C02091680030E08091690090E090939A
S1130AE0A4018093A30148E150E05093A2014093F4
S1130AF0A1011092A00110929F012F5F3F4F3093EC
S1130B00A6012093A5016CE3629FA001639F500D91
S1130B101124840F951F803A25E092070CF450C2EB
S1130B208FE995E090939E0180939D0187E18093E6
S1130B3068008BE3809369006AC38091680090E049
S1130B409093A6018093A5012091690030E048E1CB
S1130B5050E05093A2014093A1011092A001109281
S1130B609F012F5F3F4F2C3331052CF43093A401A8
S1130B702093A30109C01092A4011092A30101962D
S1130B809093A6018093A5018091A5019091A6015F
S1130B904CE3489F9001499F300D11248091A3019B
S1130BA09091A401820F931F803A45E094070CF4BE
S1130BB05AC28FE995E090939E0180939D0187E14D
S1130BC0809368008BE38093690060E080E00E947A
S1130BD0EB0281ED90E00E94F60261E080E00E9469
S1130BE0EB028EE990E021C382E090E090939C01B7
S1130BF080939B01E0919901F0919A013197EB3038
S1130C00F10508F08AC3EB5CFF4F0C94351080911A
S1130C1094018150883108F087E18093940161E068
S1130C2086E00E94EB0285E491E00E94F60261E016
S1130C3086E00E94EB028091940195C28091930119
S1130C4081508C3308F08BE38093930161E087E05B
S1130C500E94EB0285E491E00E94F60261E087E0E5
S1130C600E94EB02809193017EC280919201815097
S1130C708C3308F08BE38093920161E088E00E945A
S1130C80EB0285E491E067C220916E0030E0809130
S1130C906F0090E09093A4018093A3011092A201AD
S1130CA01092A1011092A00110929F0121503109CC
S1130CB03093A6012093A5016CE3629FA001639F7A
S1130CC0500D1124840F951F181619060CF45BCDD2
S1130CD081E090E090939E0180939D0110926E00BC
S1130CE05CCD80916E0090E09093A6018093A50165
S1130CF020916F0030E01092A2011092A101109295
S1130D00A00110929F01215031092C3331052CF49C
S1130D103093A4012093A3010BC02BE330E0309364
S1130D20A4012093A30101979093A6018093A501A8
S1130D308091A5019091A6014CE3489F9001499FA1
S1130D40300D11248091A3019091A401820F931F6F
S1130D50181619060CF470CD81E090E090939E0172
S1130D6080939D0110926E0071CD40916C0050E013
S1130D7080916D0090E09093A4018093A301609111
S1130D806E00262F30E03093A2012093A101209120
S1130D906F0030E03093A00120939F01415051092E
S1130DA05093A6014093A5017CE3749FF001759FC5
S1130DB0F00D11248E0F9F1F4CE3649F200D311DF5
S1130DC01124281739070CF47BCDC901019678CD7D
S1130DD040916C0050E05093A6014093A50180918E
S1130DE06D0090E060916E00262F30E03093A201F8
S1130DF02093A10120916F0030E03093A001209353
S1130E009F0101978C3391052CF49093A401809356
S1130E10A3010CC08BE390E09093A4018093A30101
S1130E20415051095093A6014093A5018091A50119
S1130E309091A6017CE3789FA001799F500D112425
S1130E408091A3019091A401840F951F4CE3649FAA
S1130E50200D311D1124281739070CF48ACDC9013E
S1130E60019687CD40916A0050E080916B0090E03C
S1130E709093A4018093A30160916C00262F30E02D
S1130E803093A2012093A10120916D0030E03093B2
S1130E90A00120939F01415051095093A601409312
S1130EA0A5017CE3749FF001759FF00D11248E0F52
S1130EB09F1F4CE3649F200D311D1124281739070F
S1130EC00CF49BCDC901019698CD40916A0050E085
S1130ED05093A6014093A50180916B0090E060912E
S1130EE06C00262F30E03093A2012093A1012091C1
S1130EF06D0030E03093A00120939F0101978C3363
S1130F0091052CF49093A4018093A3010CC08BE36E
S1130F1090E09093A4018093A30141505109509310
S1130F20A6014093A5018091A5019091A6017CE3BF
S1130F30789FA001799F500D11248091A301909175
S1130F40A401840F951F4CE3649F200D311D1124CF
S1130F50281739070CF4AACDC9010196A7CD4091F1
S1130F60680050E08091690090E09093A401809320
S1130F70A30160916A00262F30E03093A2012093F0
S1130F80A10120916B0030E03093A00120939F01D8
S1130F90415051095093A6014093A5017CE3749FED
S1130FA0F001759FF00D11248E0F9F1F4CE3649F79
S1130FB0200D311D11242817390714F0C901019699
S1130FC090939E0180939D016CE370E00E94211038
S1130FD060936800AFCD4091680050E05093A60143
S1130FE04093A5018091690090E060916A00262FEA
S1130FF030E03093A2012093A10120916B0030E0F6
S11310003093A00120939F0101978C3391052CF418
S11310109093A4018093A3010CC08BE390E0909380
S1131020A4018093A301415051095093A601409318
S1131030A5018091A5019091A6017CE3789FA00170
S1131040799F500D11248091A3019091A401840FE4
S1131050951F4CE3649F200D311D11242817390777
S113106014F0C901019690939E0180939D016CE355
S113107070E00E94211060936800A5CD23E030E069
S113108030939C0120939B018091990190919A0146
S11310908230910509F44BC084F40097A9F00197BC
S11310A009F032C110929A0110929901E2E9F1E03B
S11310B0A0E7B0E089E991E05EC08330910511F1C9
S11310C00C970CF42AC120C130939A012093990102
S11310D0E0E7F0E0A2E9B1E087E790E021912D9309
S11310E08E179F07D9F760E080E00E94EB0282EE42
S11310F090E00E94F60261E080E00E94EB0283EF40
S113110090E093CD82E090E090939A0180939901CE
S113111060E080E00E94EB0282EE90E00E94F60222
S113112061E080E00E94EB0284E091E095CD81E0F3
S113113090E090939A018093990160E080E00E948E
S1131140EB0282EE90E00E94F60261E080E00E94F1
S1131150EB0285E191E00E94F60261E088E00E94E2
S1131160EB02809192014AE050E067EA71E090E07E
S11311700E944F10C6C021912D938E179F07D9F757
S113118080E790E00E94FC00A6C084E090E0909389
S11311909C0180939B01E0919901F0919A01EC30BC
S11311A0F10508F0B1C0E05CFF4F0C94351084E009
S11311B090E090939A0180939901F1CA85E090E0C0
S11311C090939A018093990143CB86E090E09093A9
S11311D09A018093990180CB87E090E090939A01E3
S11311E080939901D2CB88E090E090939A01809308
S11311F099010FCC89E090E090939A018093990132
S113120061CC8AE090E090939A018093990160E028
S113121080E00E94EB0281ED90E00E94F60261E022
S113122080E00E94EB028DE890E00E94F60260E00C
S113123085E00E94EB028EE690E00E94BE0160E031
S11312408BE00E94EB028CE690E00E94BE0161E01C
S113125085E00E94EB028AE690E00E94BE0161E014
S11312608BE00E94EB0288E690E00E94BE0155C02C
S11312708BE090E090939A0180939901A6CC109210
S11312809A011092990160916E0080E00E946E01B3
S113129060916F0081E00E946E0160916C0082E0B9
S11312A00E946E0160916D0083E00E946E01609166
S11312B06A0084E00E946E0160916B0085E00E94E8
S11312C06E016091680086E00E946E016091690081
S11312D087E00E946E0160E080E00E94EB0286E2FB
S11312E091E00E94F60260E087E00E94EB0280E752
S11312F090E00E947F0161E080E00E94EB0287E3BE
S113130091E00E94F60209C010929A01109299018C
S113131004C010929C0110929B017894FF91EF916C
S1131320BF91AF919F918F917F916F915F914F91F9
S11313303F912F910F900FBE0F901F9018951F9201
S11313400F920FB60F9211244F925F926F927F9279
S11313508F929F92AF92BF92CF92DF92EF92FF92C1
S11313600F931F932F933F934F935F936F937F93A9
S11313708F939F93AF93BF93CF93DF93EF93FF9399
S1131380F894809170008F5F8C3318F48093700010
S113139016C010927000809171008F5F8C3318F426
S11313A0809371000CC010927100809172008F5F65
S11313B0883118F48093720002C0109272008091F8
S11313C0990190919A01892B09F058C160E080E05D
S11313D00E94EB0286E291E00E94F60260E087E060
S11313E00E94EB0280E790E00E947F0180917200EE
S11313F06091710070E0EB019CE3899FC00DD11DE9
S11314001124D0939101C093900180916E00A0901B
S11314106F00B12C9CE3899FA00CB11C1124B092E5
S11314208F01A0928E0180916C00C0906D00D12C30
S11314309CE3899FC00CD11C1124D0928D01C092D1
S11314408C0180916A00E0906B00F12C9CE3899FF1
S1131450E00CF11C1124F0928B01E0928A0180913E
S113146068000091690010E09CE3899F000D111D44
S113147011241093890100938801CA15DB050CF42B
S1131480ECC0CC15DD050CF04BC06091700070E031
S113149080E090E00E94730D20E030E040E752E4E9
S11314A00E94C90C2B013C01BE01DD0F880B990B76
S11314B00E94730D9B01AC01C301B2010E94580C40
S11314C02B013C01B5010B2C000C880B990B0E94DD
S11314D0730D9B01AC01C301B2010E94570C2B0197
S11314E03C01B6016A197B09072E000C880B990B85
S11314F00E94730D9B01AC01C301B2010E94C90C8F
S113150020E030E04FE753E40E94230E0E94420D96
S11315106CBF61E080E00E94EB028CE591E068C062
S1131520CE15DF057CF48FEF8CBF61E080E00E9474
S1131530EB028AE691E00E94F60261E085E00E94F7
S1131540EB0274C0C017D1070CF087C06091700023
S113155070E080E090E00E94730D20E030E040E70E
S113156052E40E94C90C4B015C01BE01DD0F880BE3
S1131570990B0E94730D9B01AC01C501B4010E943B
S1131580580C4B015C01B7010F2C000C880B990B14
S11315900E94730D9B01AC01C501B4010E94570C5C
S11315A04B015C01B8016E197F09072E000C880BF2
S11315B0990B0E94730D9B01AC01C501B4010E94FB
S11315C0C90C9B01AC0160E070E080E89FE30E94DD
S11315D0570C20E030E04FE753E40E94230E0E94B2
S11315E0420D6CBF61E080E00E94EB0288E791E06D
S11315F00E94F60261E085E00E94EB026CB770E0A5
S113160080E090E00E94730D23E333E343E250E46F
S11316100E94C90C20E030E040E251E40E94C40C76
S113162087FF04C088E790E00E94F6026CB770E080
S113163080E090E00E94730D23E333E343E250E43F
S11316400E94C90C22E030E047EA51E00E944702C0
S11316500E94F6028AE591E00FC01CBE61E080E0C2
S11316600E94EB0288E491E00E94F60261E085E0CA
S11316700E94EB0286E591E00E94F60280917100DF
S113168081110AC080917700882331F0109277008D
S113169080E790E00E943401809171008B3339F42B
S11316A080917700811103C081E080937700789462
S11316B0FF91EF91DF91CF91BF91AF919F918F9166
S11316C07F916F915F914F913F912F911F910F9156
S11316D0FF90EF90DF90CF90BF90AF909F908F904E
S11316E07F906F905F904F900F900FBE0F901F9060
S11316F018958FEF8ABB1BBA8FE087BB18BA11BA53
S113170012BA14BA80EF85BB8BB780648BBF85B7E0
S11317108A6085BF84B784BF789408958CB78CBFE2
S113172083B7896683BFBB9A789408958EE398E360
S11317309BBD8ABD8FB58FBD8EB58D608EBD89B7BB
S1131740806189BF789408952FEF8FE392E0215050
S113175080409040E1F700C000000E94790B0E9495
S11317608E0B0E94960B0E94C20280E790E00E94BA
S1131770340180E00E94770180936E00883120F06C
S11317808091660080936E0081E00E9477018093CF
S11317906F008C3320F08091670080936F0082E0AB
S11317A00E94770180936C00883120F0809164005E
S11317B080936C0083E00E94770180936D008C33EA
S11317C020F08091650080936D0084E00E94770191
S11317D080936A00883120F08091620080936A00CF
S11317E085E00E94770180936B008C3320F0809118
S11317F0630080936B0086E00E9477018093680009
S1131800883120F0809160008093680087E00E9416
S113181077018C3320F08091610080936900FFCFC1
S1131820E0E7F0E02281818190E03CE3239F800D9A
S1131830911D11249093910180939001EEE6F0E0C4
S11318402081818190E03CE3239F800D911D112430
S113185090938F0180938E01ECE6F0E020818181EA
S113186090E03CE3239F800D911D112490938D0102
S113187080938C01EAE6F0E02081818190E03CE3F2
S1131880239F800D911D112490938B0180938A01D5
S1131890E8E6F0E02081818190E03CE3239F800D25
S11318A0911D1124909389018093880108955058C3
S11318B0BB27AA270E946F0C0C94E90D0E94DB0D34
S11318C038F00E94E20D20F039F49F3F19F426F419
S11318D00C94D80D0EF4E095E7FB0C94D20DE92F8F
S11318E00E94FA0D58F3BA17620773078407950725
S11318F020F079F4A6F50C941C0E0EF4E0950B2E52
S1131900BA2FA02D0B01B90190010C01CA01A0014D
S11319101124FF27591B99F0593F50F4503E68F1A8
S11319201A16F040A22F232F342F4427585FF3CFE9
S1131930469537952795A795F0405395C9F77EF4BA
S11319401F16BA0B620B730B840BBAF09150A1F003
S1131950FF0FBB1F661F771F881FC2F70EC0BA0F89
S1131960621F731F841F48F4879577956795B79511
S1131970F7959E3F08F0B0CF9395880F08F099270C
S1131980EE0F9795879508950E94AE0D08F481E0B7
S113199008950E94DD0C0C94E90D0E94E20D58F0AC
S11319A00E94DB0D40F029F45F3F29F00C94D20D26
S11319B051110C941D0E0C94D80D0E94FA0D68F36D
S11319C09923B1F3552391F3951B550BBB27AA27F4
S11319D062177307840738F09F5F5F4F220F331F2E
S11319E0441FAA1FA9F335D00E2E3AF0E0E832D0F6
S11319F091505040E695001CCAF72BD0FE2F29D0F9
S1131A00660F771F881FBB1F261737074807AB07CA
S1131A10B0E809F0BB0B802DBF01FF2793585F4F3F
S1131A203AF09E3F510578F00C94D20D0C941D0EA3
S1131A305F3FE4F3983ED4F3869577956795B79521
S1131A40F7959F5FC9F7880F911D9695879597F92C
S1131A500895E1E0660F771F881FBB1F62177307A5
S1131A608407BA0720F0621B730B840BBA0BEE1FBA
S1131A7088F7E09508950E94420D6894B1110C9482
S1131A801D0E08950E94020E88F09F5798F0B92FFA
S1131A909927B751B0F0E1F0660F771F881F991F9F
S1131AA01AF0BA95C9F714C0B13091F00E941C0E17
S1131AB0B1E008950C941C0E672F782F8827B85F27
S1131AC039F0B93FCCF3869577956795B395D9F7F7
S1131AD03EF490958095709561957F4F8F4F9F4F01
S1131AE00895E89409C097FB3EF49095809570950D
S1131AF061957F4F8F4F9F4F9923A9F0F92F96E956
S1131B00BB279395F695879577956795B795F111CA
S1131B10F8CFFAF4BB0F11F460FF1BC06F5F7F4F67
S1131B208F4F9F4F16C0882311F096E911C0772379
S1131B3021F09EE8872F762F05C0662371F096E882
S1131B40862F70E060E02AF09A95660F771F881F51
S1131B50DAF7880F9695879597F90895990F0008F5
S1131B60550FAA0BE0E8FEEF16161706E807F9076B
S1131B70C0F012161306E407F50798F0621B730B06
S1131B80840B950B39F40A2661F0232B242B252B87
S1131B9021F408950A2609F4A140A6958FEF811D2A
S1131BA0811D089597F99F6780E870E060E00895CB
S1131BB09FEF80EC089500240A9416161706180661
S1131BC00906089500240A9412161306140605063D
S1131BD00895092E0394000C11F4882352F0BB0FCE
S1131BE040F4BF2B11F460FF04C06F5F7F4F8F4F31
S1131BF09F4F089557FD9058440F551F59F05F3F6C
S1131C0071F04795880F97FB991F61F09F3F79F01A
S1131C1087950895121613061406551FF2CF46959C
S1131C20F1DF08C0161617061806991FF1CF86951E
S1131C307105610508940895E894BB276627772702
S1131C40CB0197F908950E94360E0C94E90D0E9479
S1131C50DB0D38F00E94E20D20F0952311F00C9476
S1131C60D20D0C94D80D11240C941D0E0E94FA0D63
S1131C7070F3959FC1F3950F50E0551F629FF001DB
S1131C80729FBB27F00DB11D639FAA27F00DB11DF4
S1131C90AA1F649F6627B00DA11D661F829F22277D
S1131CA0B00DA11D621F739FB00DA11D621F839F04
S1131CB0A00D611D221F749F3327A00D611D231FDA
S1131CC0849F600D211D822F762F6A2F11249F5728
S1131CD050409AF0F1F088234AF0EE0FFF1FBB1F2B
S1131CE0661F771F881F91505040A9F79E3F5105EA
S1131CF080F00C94D20D0C941D0E5F3FE4F3983EDB
S1131D00D4F3869577956795B795F795E7959F5F93
S1131D10C1F7FE2B880F911D9695879597F9089525
S1131D20FA01EE0FFF1F309621053105A1F161156F
S1131D30710561F48038BFE39B0749F168949038DA
S1131D40810561F08038BFEF9B0741F099234AF584
S1131D50FF3FE1053105210519F1E8940894E79561
S1131D60D901AA2329F4AB2FBE2FF85FD0F310C0FA
S1131D70FF5F70F4A695E0F7F73950F019F0FF3AD9
S1131D8038F49F779F930DD00F9007FC90580895D7
S1131D9046F00C94D80D60E070E080E89FE308956D
S1131DA04FE79F775F934F933F932F930E948B0F3F
S1131DB02F913F914F915F910E94230E0C94E80E56
S1131DC029F416F00C94D20D0C941C0E0C94D80D1E
S1131DD00E94020EA8F39638A0F707F80F92E89431
S1131DE02BE33AEA48EB5FE70E94390E0F920F9219
S1131DF00F924DB75EB70F920E94D30FE8E9F0E05F
S1131E000E941A0F4F915F91EF91FF91E595EE1F9C
S1131E10FF1F49F0FE57E0684427EE0F441FFA9570
S1131E20E1F74195550B0E944D0F0F9007FE0C945E
S1131E30410F0895DF93CF931F930F93FF92EF9277
S1131E40DF927B018C01689406C0DA2EEF010E94B8
S1131E50360EFE01E894A591259135914591559151
S1131E60A6F3EF010E946F0CFE019701A801DA941A
S1131E7069F7DF90EF90FF900F911F91CF91DF9161
S1131E8008959B01AC0160E070E080E89FE30C944E
S1131E90C90C0C94D20D0C9407100E94020ED8F3B6
S1131EA09923C9F3940F511DA3F39150504094F01A
S1131EB059F0882332F0660F771F881F91505040E5
S1131EC0C1F79E3F51052CF7880F911D9695879574
S1131ED097F908955F3FACF0983E9CF0BB27869538
S1131EE077956795B79508F4B1609395C1F7BB0FE3
S1131EF058F711F460FFE8CF6F5F7F4F8F4F9F4F0C
S1131F00E3CF0C941D0E16F00C9407100C94D80D0E
S1131F1068940C94D20D0E94020EA8F39923C1F385
S1131F20AEF3DF93CF931F930F93FF92C92FDD2757
S1131F3088232AF02197660F771F881FDAF720E09D
S1131F4030E040E85FEB9FE3883920F0803E38F0D2
S1131F5021968F770E94580CE0ECF0E004C00E94B8
S1131F60580CEDEEF0E00E941A0F8B01BE01EC015B
S1131F70FB2E6F5771097595771F880B990B0E947B
S1131F80730D28E132E741E35FE30E94360EAF2D83
S1131F909801AE01FF900F911F91CF91DF910E94A4
S1131FA06F0C0C94E90DFA01DC01AA0FBB1F9B0115
S1131FB0AC01BF5728F4222733274427507820C088
S1131FC0B75190F4AB2F0024469537952795011C03
S1131FD0A395D2F3002071F0220F331F441FB39551
S1131FE0DAF30ED00C94570C61307105A0E88A071F
S1131FF0B94630F49B01AC0166277727882790788F
S1132000309621F0208331834283538308959F3F88
S113201031F0915020F4879577956795B795880F9F
S1132020911D9695879597F90895991B79E004C0B9
S1132030991F961708F0961B881F7A95C9F7809503
S1132040089597FB072E16F4009407D077FD09D066
S11320500E943B1007FC05D03EF4909581959F4F5C
S11320600895709561957F4F0895EE0FFF1F0590B9
S1132070F491E02D0994AA1BBB1B51E107C0AA1FD0
S1132080BB1FA617B70710F0A61BB70B881F991F15
S11320905A95A9F780959095BC01CD0108954532D4
S11320A0510520F4423010F00C945A10FB011082B8
S11320B0CB010895BB274A3031F4992322F4BDE2C1
S11320C0909581959F4F0C946610BB27FB01552773
S11320D0AA27880F991FAA1FA41710F0A41B839581
S11320E05051B9F7A05DAA3308F0A95DA1930097F8
S11320F079F7B111B1931192CB010C947F10DC01EB
S1132100FC01672F71917723E1F7329704C07C912A
S11321106D9370836291AE17BF07C8F30895F89466
S1052120FFCFEB
S1132122140012000A000800140012000A00080039
S1132132373B00000000000130003A007261737600
S113214220202020202020202020202000636861DD
S113215273202020202020202020202020006D69B0
S11321626E202020202020202020202020200064F7
S1132172656E2720202020202020202020202000DF
S11321827A616B742020202020202020202020200F
S1132192006E6F6368202020202020202020202031
S11321A220006E617374726F696B61206361736F77
S11321B2762000636861736920202020202020207B
S11321C2202020006D696E75746920202020202053
S11321D22020202000736563796E6469202020200A
S11321E22020202020005672656D613A2020202094
S11321F220202020202000202020202020202020F9
S113220220202020202020006E6F636820202020C0
S1132212202020202000302E303025007261737679
S11322222020202020202020200064656E272020EA
S113223220202020202020007A616B74202020207E
S1092242202020202000F2
S9030000FC
